:020000040800F2
:1000000000800120E540000831400008334000082E
:100010003540000837400008394000080000000063
:10002000000000000000000000000000B12B0008EC
:100030003B40000800000000412C00083D40000843
:1000400035410008354100083541000835410008B8
:1000500035410008354100083541000835410008A8
:100060003541000835410008354100083541000898
:100070003541000835410008354100083541000888
:100080003541000835410008354100083541000878
:10009000354100083541000835410008414000085D
:1000A000354100083541000861400008354100082D
:1000B0003541000835410008354100083541000848
:1000C0003541000835410008354100083541000838
:1000D0003541000835410008354100083541000828
:1000E0006D400008354100083541000835410008E1
:1000F0003541000835410008354100083541000808
:1001000035410008354100083541000835410008F7
:1001100035410008354100083541000835410008E7
:1001200035410008354100083541000835410008D7
:1001300035410008354100083541000835410008C7
:1001400035410008354100083541000835410008B7
:1001500035410008354100083541000835410008A7
:100160003541000835410008354100083541000897
:100170003541000835410008000000000000000083
:0801800035410008354100087B
:1001900010B5054C237833B9044B13B10448AFF3C1
:1001A00000800123237010BD080000200000000023
:1001B0008041000808B5034B1BB103490348AFF366
:1001C000008008BD000000000C00002080410008F5
:1001D00053B94AB9002908BF00281CBF4FF0FF31AE
:1001E0004FF0FF3000F07AB9ADF1080C6DE904CEA4
:1001F00000F006F8DDF804E0DDE9022304B0704702
:100200002DE9F0478C460D460446089E002B51D13F
:100210008A4217466DD9B2FA82FEBEF1000F0BD0AA
:10022000CEF1200C01FA0EF520FA0CFC02FA0EF7C2
:100230004CEA050C00FA0EF44FEA174A250CBCFBF9
:10024000FAF81FFA87F90AFB18CC45EA0C4508FBB7
:1002500009F3AB420AD9ED1908F1FF3280F023818E
:10026000AB4240F22081A8F102083D44ED1AA4B24D
:10027000B5FBFAF00AFB105544EA054400FB09F906
:10028000A14509D9E41900F1FF3380F00A81A145A5
:1002900040F2078102383C44A4EB090440EA0840DC
:1002A0000021002E61D024FA0EF400233460736024
:1002B000BDE8F0878B4207D9002E54D0002186E894
:1002C00021000846BDE8F087B3FA83F1002940F029
:1002D0008E80AB4202D3824200F2FA80841A65EB30
:1002E00003050120AC46002E3FD086E81010BDE883
:1002F000F08712B90127B7FBF2F7B7FA87FEBEF114
:10030000000F34D1EB1B3A0C1FFA87FC0121B3FB21
:10031000F2F8250C02FB183345EA03450CFB08F301
:10032000AB4207D9ED1908F1FF3002D2AB4200F21F
:10033000D1808046ED1AA3B2B5FBF2F002FB105556
:1003400043EA05440CFB00FCA44507D9E41900F17D
:10035000FF3302D2A44500F2B8801846A4EB0C0487
:1003600040EA08409DE731463046BDE8F087CEF1CF
:10037000200405FA0EF307FA0EF720FA04F83A0CF7
:1003800025FA04F448EA0308B4FBF2F14FEA1845F1
:1003900002FB11441FFA87FC45EA044501FB0CF3FC
:1003A000AB4200FA0EF409D9ED1901F1FF3080F0EB
:1003B0008A80AB4240F2878002393D44EB1A1FFA33
:1003C00088F5B3FBF2F002FB103345EA034500FB6E
:1003D0000CF3AB4207D9ED1900F1FF386FD2AB42F5
:1003E0006DD902383D44EB1A40EA01418FE7C1F173
:1003F000200722FA07F88B4005FA01F448EA0303C4
:1004000020FA07FE4FEA134CFD404EEA040EB5FBFE
:10041000FCF94FEA1E440CFB19551FFA83F844EA15
:10042000054509FB08F4AC4202FA01F200FA01FAB0
:1004300008D9ED1809F1FF3043D2AC4241D9A9F1F6
:1004400002091D442D1B1FFA8EFEB5FBFCF00CFBB0
:1004500010554EEA054400FB08F8A04507D9E418FA
:1004600000F1FF3529D2A04527D902381C4440EAC3
:100470000940A4EB0804A0FB02894C45C6464D4642
:1004800015D312D056B1BAEB0E0364EB050404FA8F
:1004900007F7CB401F43CC40376074600021BDE8B4
:1004A000F0871846F8E69046E0E6C245EAD2B8EB97
:1004B000020E69EB03050138E4E72846D7E740461A
:1004C00091E78146BEE7014678E702383C4445E7BC
:1004D000084608E7A8F102083D442BE7704700BF33
:1004E00010B5032000F028F8002003F065FD044655
:1004F00018B903F0BFFB204610BD0124FBE7000044
:10050000024A136801331360704700BF500D00208A
:10051000014B1868704700BF500D002038B50446E5
:10052000FFF7F6FF631C054618BF0134FFF7F0FF25
:10053000401B8442FAD838BD074AD36823F4E063ED
:100540001B041B0C43F0BF63000243F4003300F4B0
:10055000E0600343D360704700ED00E0174B30B517
:10056000DC68C4F30224C4F10703251D042B28BF53
:100570000423062D4FF0010505FA03F303F1FF33C1
:100580008CBF033C00241940A14005FA04F4013C4F
:100590002240002842EA01024FEA0212AFBF00F1F6
:1005A000604000F00F00064BD2B2A5BF00F56140DD
:1005B000D2B21A5480F8002330BD00BF00ED00E035
:1005C00014ED00E04209012300F01F0003FA00F0DF
:1005D000014B43F82200704700E100E00138B0F120
:1005E000807F0AD2064B074A5860F02182F8231018
:1005F0000020072298601A6070470120704700BFF2
:1006000010E000E000ED00E0044B1A6804280CBF85
:1006100042F0040222F004021A60704710E000E089
:10062000144B984217D02033984216D0203398426A
:1006300015D02033984214D02033984213D0203361
:10064000984212D02033984211D0203398420CBFE8
:1006500007200020704700207047012070470220CB
:10066000704703207047042070470520704706201C
:10067000704700BF0060014038B50446002867D0CD
:100680000068344DFFF7CCFF55F82030002B5FD1C8
:10069000204603F035FB304B1A6801321A601B68A4
:1006A000012B19D12D4B1A6822F080421A601A686A
:1006B000A1680A431A601A6822F47F021A6022793C
:1006C000012A05D1E1681A68013942EA01421A603B
:1006D0001A6842F000421A6020686169036823F4D6
:1006E00071430360236902680B43A1690B43134301
:1006F00003600368216A23F00F030360E369026863
:100700000B43134303608368616AA26A23F45F03A7
:1007100083608368013A0B4343EA02438360436882
:10072000226B03F007034360436843EAC203E26AB3
:1007300043EA02234360036843F08003036001231C
:1007400084F83430FFF76CFF45F82040002038BDB6
:10075000012038BD2400002044000020006001403A
:100760002DE9F04F85B00B68DFF8A881674C019345
:100770000023019ADA4002D105B0BDE8F08F0126CE
:10078000019A9E4012EA060E00F0B1804A6822F0FB
:100790001007022F16D14FEAD30900EB890903F0A5
:1007A000070AD9F820504FEA8A0A4FF00F0C0CFACA
:1007B0000AFC25EA0C0C0D6905FA0AF545EA0C0558
:1007C000C9F820504FEA430C0325D0F800B005FAD1
:1007D0000CF5ED4302F0030A0BEA050B0AFA0CF9DB
:1007E000013F49EA0B09012FC0F8009011D8876832
:1007F00005EA0709CF6807FA0CF747EA0907876097
:10080000476827EA0609C2F300179F4047EA09072D
:100810004760BAF1030F07D1C76A27EA0606C2F399
:10082000C0079F403E43C662C66835408E6806FAE0
:100830000CF63543C560D50059D5D8F8605045F061
:100840000105C8F86050D8F8605023F0030606F19F
:10085000804605F0010506F58036039503F0030C8C
:10086000039DB5684FEA8C0C0F2707FA0CF7B0F11F
:10087000904F25EA07073CD0254DA8423BD005F50F
:100880008065A84239D005F58065A84237D005F5C6
:100890008065A84235D005F58065A84233D005F5BE
:1008A0008065A84214BF0725062505FA0CF53D43CF
:1008B000B56025686FEA0E06D70354BF35404EEA8F
:1008C000050525606568970354BF35404EEA050568
:1008D0006560A568D70254BF35404EEA0505A5609E
:1008E000E568920254BF35404EEA0505E5600133E4
:1008F0003FE70025D9E70125D7E70225D5E70325FE
:10090000D3E70425D1E70525CFE700BF0004014068
:1009100000040048001002400AB181617047816202
:100920007047704708B5044B5969014202D05861BD
:10093000FFF7F7FF08BD00BF0004014010B50446F3
:1009400000284AD090F8413003F0FF021BB980F82C
:10095000402003F0F9F9242384F841302368E1684A
:100960001A6822F001021A60626822F070621A614D
:100970009A68012922F400429A60A26824D142F4C4
:1009800000429A605A68616942F0007242F4004283
:100990005A60DA6822F40042DA6022690A43A169E7
:1009A00042EA0122DA60216AE2690A431A601A689F
:1009B00042F001021A6000202023606484F8413074
:1009C000206384F8420010BD42F4044202299A6078
:1009D00004BF4FF400625A60D4E7012010BD90F8C4
:1009E0004120D2B2202A10B51DD190F84030012B01
:1009F00019D0242380F8413003681C6824F00104D6
:100A00001C601C6824F480541C601C68214319601D
:100A1000196841F001011960002380F8412080F835
:100A20004030184610BD022010BD10B590F841406E
:100A3000E4B2202C1CD190F84030012B18D0242394
:100A400080F8413003681A6822F001021A601A68BF
:100A500022F4706242EA012119601A6842F0010230
:100A60001A60002380F8414080F84030184610BDDD
:100A7000022010BD2DE9F04104468AB0002874D050
:100A800090F8BD3303F0FF021BB980F8BC2303F0DC
:100A90004FFA2546032355F8100B84F8BD3301F0B7
:100AA000CEFE0FCD6E460FC60FCD0FC695E80300E4
:100AB00086E8030004F1040898E80E00206801F0BD
:100AC0008FFE0021206801F0C0FE0021224623464F
:100AD00004F110050126084683F83C10A3F84210E3
:100AE00001310F2983F83D6083F83F005864986412
:100AF000186503F11C03EFD100231F4682F8FC3177
:100B000001330F2B82F8FD7182F8FF71C2F8047275
:100B1000C2F80872C2F8107202F11C02EED10FCDB9
:100B20006E460FC60FCD0FC695E8030086E803009A
:100B300098E80E00206801F0C9FE012384F838709F
:100B400084F8BD33636A012B02D1204600F00FF810
:100B5000A36A012B02D1204600F01CF8206801F0A6
:100B600051FF00200AB0BDE8F0810120FAE70268D9
:100B700003460121C0F8FC13002083F8F4039369B5
:100B800043F000639361536D43F0805343F00303DC
:100B90005365704702680123C0F80034936B43F437
:100BA0000033936300207047024A136843F4807354
:100BB0001360704700700040024B186800F4C0607A
:100BC000704700BF00700040174B1A68B0F5007FF7
:100BD00002F4C0621CD1B2F5007F15D01A6822F46D
:100BE000C06242F400721A60104A116832224A430D
:100BF0000F49B2FBF1F2194601325869400500D5A0
:100C000022B94B695B050DD400207047013AF4E727
:100C1000B2F5806F1FBF1A6822F4C06242F480628E
:100C20001A60F1E7032070470070004004000020C4
:100C300040420F00024A536843F480635360704798
:100C4000007000402DE9F041069D04460F4616460F
:100C5000984621688A683A4214BF01220022B242B3
:100C600002D10020BDE8F0816B1CF3D0FFF750FCEF
:100C7000A0EB0800854201D3002DEAD1042384F8BB
:100C80003930E36B43F00103E3630120BDE8F081F9
:100C900037B50446FFF73CFC0546002C49D094F8D4
:100CA0003830012B47D0012384F8383094F83920AC
:100CB00002F0FF033AB984F83830204603F06CF8AC
:100CC00041F2883323642068A1680268236C0139EB
:100CD00022F4706242EA0122026020210093002285
:100CE0002B462046FFF7AEFFF0B922686568116811
:100CF000E36821F07F4143EA056321F010010B43D3
:100D00001360A169636955680B43216943EA014394
:100D10000A4929400B435360136843F001031360F1
:100D20000123E06384F83930002384F8383003B0BD
:100D300030BD0120FBE70220F9E700BFFEF8E0FF2D
:100D400037B51E4DAB6DDA00044618D5FFF734FFFA
:100D5000B0F5007F23D1802C29D9A02C8CBF022094
:100D60000120174A136823F0070303431360136835
:100D700003F00703181A18BF012003B030BDAB6D94
:100D800043F08053AB65AB6D03F080530193019B3F
:100D9000FFF712FFAB6D23F08053AB65D8E7802CD3
:100DA00007D808D0A4F1700358425841D9E7002071
:100DB000D7E70320D5E70220D3E700BF00100240A9
:100DC00000200240254B9A68D96812F00C0205D029
:100DD0000C2A15D101F00301012918D11968204806
:100DE000090755BFD3F894101968C1F30321C1F363
:100DF000031150F8210082B30C2A09D0002070475B
:100E0000042A29D0082A174818BF0020704700205C
:100E1000D968DA6801F00301C2F30212022902F173
:100E2000010205D0032912D0D968C1F3062103E0DD
:100E3000D9680D48C1F30621DB68B0FBF2F0C3F3BB
:100E40004163013348435B00B0FBF3F07047D9685E
:100E50000448C1F30621EFE7034870470010024041
:100E6000E841000800127A000024F4002DE9F7435D
:100E7000054618B9012003B0BDE8F083A54C03680E
:100E8000A668E768DB0606F00C0607F003073CD50A
:100E90001EB10C2E63D1012F61D12368980702D5B2
:100EA000AB69002BE6D02368286A190756BFD4F82F
:100EB000943023681B0903F0F00383423AD2FFF712
:100EC0003FFF0028D6D1236843F00803236023683E
:100ED0002A6A23F0F003134323606368EA6923F46A
:100EE0007F4343EA02236360FFF76CFFA3688A4AEB
:100EF000C3F30313D35C03F01F03D840874B186080
:100F0000002003F059F80028B5D12B68D8075DD42C
:100F10002B68990700F19C802B68180700F1D0809E
:100F20002B68590700F1FC80AB6A002B40F065810B
:100F30000020A0E7236843F008032360236823F020
:100F4000F003034323606368EA6923F47F4343EAC1
:100F500002236360FFF7F4FE0028C5D08AE7AB697F
:100F60001BB3236843F001032360FFF7D1FA8046E7
:100F700023689A0711D5236843F008032360236888
:100F80002A6A23F0F003134323606368EA6923F4B9
:100F90007F4343EA02236360B7E7FFF7B9FAA0EBA8
:100FA00008000228E4D9032065E7236823F0010341
:100FB0002360FFF7ADFA804623689B07A5D5FFF7AE
:100FC000A7FAA0EB08000228F6D9ECE7082E03D018
:100FD0000C2E08D1032F06D123689A0398D56B688D
:100FE000002B95D146E76B68B3F5803F10D123689D
:100FF00043F480332360FFF78BFA804623689B031A
:1010000086D4FFF785FAA0EB08006428F6D9CAE772
:10101000B3F5A02F04D1236843F480232360E6E7CF
:10102000226822F480322260226822F48022226028
:10103000002BE0D1FFF76CFA8046236898037FF518
:1010400067AFFFF765FAA0EB08006428F5D9AAE7B7
:10105000042E03D00C2E10D1022F0ED12368590577
:1010600003D5EB68002B3FF405AF63682A6923F0D2
:10107000F85343EA026363604EE7EB687BB1236891
:1010800043F480732360FFF743FA074623685A0549
:10109000EBD4FFF73DFAC01B0228F7D983E723689A
:1010A00023F480732360FFF733FA074623685B0558
:1010B0007FF532AFFFF72CFAC01B0228F6D972E792
:1010C0006B699BB1D4F8943043F00103C4F89430B9
:1010D000FFF71EFA0746D4F894309A073FF520AF81
:1010E000FFF716FAC01B0228F5D95CE7D4F8943054
:1010F00023F00103C4F89430FFF70AFA0746D4F846
:1011000094309B077FF50CAFFFF702FAC01B022853
:10111000F5D948E700100240CE4100080400002045
:10112000A36DD80029D4A36D43F08053A365A36DAC
:1011300003F080530193019B4FF001085D4F3B6822
:10114000D9051DD5AB68012B2BD1D4F8903043F0D5
:101150000103C4F89030FFF7DBF941F28839074604
:10116000D4F890309B0742D5B8F1000F3FF4DCAEC5
:10117000A36D23F08053A365D6E64FF00008DDE7AA
:101180003B6843F480733B60FFF7C2F981463B68DC
:10119000DA05D7D4FFF7BCF9A0EB09000228F6D98D
:1011A00001E7052B06D1D4F8903043F00403C4F8CE
:1011B0009030CAE7D4F8902022F00102C4F89020C1
:1011C000D4F8902022F00402C4F89020002BC2D161
:1011D000FFF79EF941F288390746D4F89030980716
:1011E000C2D5FFF795F9C01B4845F6D9DBE6FFF7F6
:1011F0008FF9C01B4845B3D9D5E60C2E3FF43AAE63
:10120000022B236823F08073236037D1FFF780F926
:101210000646236899012BD46A6BEB6A43EA0223E2
:101220002A6B013A43EA0213AA6B120943EA4243CA
:10123000EA6B5208013A43EA42532A6C5208013AD7
:1012400043EA4263E360236843F080732360E3680A
:1012500043F08073E360FFF75BF9054623689A016A
:101260003FF566AEFFF754F9401B0228F6D99AE61F
:10127000FFF74EF9801B0228CBD994E6236813F0C0
:10128000205F02BFE36823F00303E360E36823F019
:10129000887323F48033E360FFF73AF90546236847
:1012A0009B017FF545AEFFF733F9401B0228F6D9C5
:1012B00079E600BF007000402DE9F0410E4604467B
:1012C00010B90120BDE8F081404A136803F007031C
:1012D0008B4229D32368D90731D421688A075BD48C
:1012E0003A4A136803F007039E425DD311F0040FDE
:1012F000374D64D10B0706D5AB68226923F46053E0
:1013000043EAC203AB60FFF75DFDAB68314AC3F34C
:101310000313BDE8F041D35C03F01F03D8402E4B0C
:101320001860002002F048BE136823F007030B4347
:101330001360136803F007039942C2D1CAE76268D9
:10134000234D032A2B681BD113F0007FB9D0AB6863
:1013500023F003031343AB60FFF7DAF841F2883858
:101360000746AB68626803F00C03B3EB820FB4D09E
:10137000FFF7CEF8C01B4045F3D90320BDE8F0814C
:10138000022A02D113F4003FE0E712B913F0020F72
:10139000DCE713F4806FD9E70D4AA068936823F067
:1013A000F003034393609BE7136823F00703334381
:1013B0001360136803F007039E4282D196E7AB687F
:1013C000E26823F4E0631343AB6093E7002002403C
:1013D00000100240CE41000804000020014B1868B4
:1013E000704700BF04000020054B064A9B68C3F30A
:1013F0000223D35C044A106803F01F03D8407047EF
:1014000000100240DE41000804000020054B064A9F
:101410009B68C3F3C223D35C044A106803F01F0324
:10142000D840704700100240DE4100080400002050
:101430000F2303600B4B9A6802F0030242609A6824
:1014400002F0F00282609A6802F4E062C2609B6877
:10145000DB0803F4E0630361034B1B6803F007033D
:101460000B6070470010024000200240F8B5454B69
:10147000DA6812F0030F05460E461C4600682AD0B3
:10148000DA6802F0030282423CD1002A3AD0DB68DB
:101490006A68C3F302130133934233D1236823F004
:1014A00080632360FFF734F8074623681A0132D4BB
:1014B000AF68002E36D0012E50D12269286922F45F
:1014C000C002400822F4FE42013842EA072242EA02
:1014D0004052226132E0022810D0032814D00128A3
:1014E00010D11B689F0738D5E3686A6823F073033F
:1014F000013A184340EA0210E060CFE71B6813F49A
:10150000806FF1D10120F8BD1A689103ECD41B68FB
:1015100013F4802FF5E7FEF7FBFFC01B0228C4D9A8
:101520000320F8BD2169EB6821F41F3121F44071DB
:1015300041EA07211B0941EA43412161236843F045
:1015400080632360FEF7E4FF064623681B0113D582
:101550002369AA69134323610020F8BD23696869E0
:1015600023F0C063400823F4FE43013843EA072315
:1015700043EA40632361E1E7FEF7CAFF801B0228CC
:10158000E3D9CDE700100240F8B53D4BDA6812F020
:10159000030F05460E461C46006828D0DA6802F0A4
:1015A000030282423AD1002A38D0DB686A68C3F36A
:1015B00002130133934231D1236823F08053236017
:1015C000FEF7A6FF074623689A0030D4A868002ECD
:1015D00034D06369296923F0C063490823F4FE43CA
:1015E000013943EA002343EA4163636132E00228A0
:1015F00010D0032814D0012810D11B689F0738D5BC
:10160000E3686A6823F07303013A184340EA021062
:10161000E060D1E71B6813F4806FF1D10120F8BDC1
:101620001A689103ECD41B6813F4802FF5E7FEF7DA
:101630006FFFC01B0228C6D90320F8BD6269EB68A2
:1016400022F41F3222F4407242EA00221B0942EACD
:1016500043426261236843F080532360FEF758FFE2
:10166000064623689B0005D563696A691343636175
:101670000020F8BDFEF74CFF801B0228F1D9DBE704
:10168000001002402DE9F347066816F40066044690
:1016900024D0416EB1F5800F2CD002D8C1B1012603
:1016A0001CE0B1F5000F0DD0B1F5400FF7D14D4A58
:1016B000616ED2F8883023F440030B43C2F88830BF
:1016C00000260BE0474AD36843F48033D360EEE74B
:1016D0000430FFF7CBFE06460028E8D02368D80484
:1016E00006D5A16EB1F1807F74D008D8A9B10126CA
:1016F000354621E000212030FFF746FFEBE7B1F14E
:10170000007F04D0B1F1407FF1D1354609E0354A80
:10171000D36843F48033D360F7E7201DFFF7A6FEBC
:101720000546002D5CD12F4AA16ED2F8883023F0F7
:1017300040730B43C2F888302368990340F14F810E
:10174000284FBB6DDA0040F176814FF00008DFF8DA
:101750009890D9F8003043F48073C9F80030FEF750
:10176000D7FE8246D9F80030DB053FD5002D44D1A5
:10177000D7F8903013F4407315D0D4F884209342F6
:1017800011D0D7F89030D7F8902042F48032C7F8C3
:101790009020D7F8902023F4407322F48032C7F8C9
:1017A0009020C7F89030D80709D5FEF7B1FE41F276
:1017B00088390546D7F89030990740F10981D7F864
:1017C0009030D4F8842023F440731343C7F890304A
:1017D000354612E0002104F12000FFF7D5FE9FE717
:1017E0002E46A9E70010024000700040FEF790FE70
:1017F000A0EB0A000228B5D90325B8F1000F03D0E9
:10180000BB6D23F08053BB652368DA0708D5904988
:10181000A06BD1F8882022F003020243C1F888208F
:101820009F0708D58A49E06BD1F8882022F00C0286
:101830000243C1F888205E0708D58549206CD1F89D
:10184000882022F030020243C1F88820180708D50A
:101850007F49606CD1F8882022F0C0020243C1F8B1
:101860008820D90608D57A49A06CD1F8882022F4BE
:1018700040720243C1F888209A0608D57449E06C8A
:10188000D1F8882022F440620243C1F888209F05E5
:1018900008D56F49E06DD1F8882022F44022024338
:1018A000C1F888205E0508D56949206ED1F88820E6
:1018B00022F440120243C1F88820580608D5644932
:1018C000206DD1F8882022F440520243C1F88820CC
:1018D000190608D55E49606DD1F8882022F440428F
:1018E0000243C1F88820DA0508D55949A06DD1F81E
:1018F000882022F440320243C1F888209B040FD58F
:10190000534AE16ED2F8883023F040630B43B1F1C3
:10191000006FC2F8883064D1D36843F48013D36079
:1019200023681F030FD54A4A216FD2F8883023F06D
:1019300040630B43B1F1006FC2F888305CD1D368CB
:1019400043F48013D36023685E030FD5404A616F70
:10195000D2F8883023F040630B43B1F1006FC2F836
:10196000883054D1D36843F48013D360236858047B
:1019700012D53749A26FD1F8883023F04053134372
:10198000B2F1805FC1F888304CD10221201DFFF7F1
:101990006DFD002818BF05462268110408D52C49A2
:1019A000E06FD1F8883023F080430343C1F88830DA
:1019B000D30309D5264AD4F88010D2F8883023F012
:1019C00000430B43C2F88830284602B0BDE8F087D8
:1019D000FEF79EFD401B48457FF6ECAE0CE7354612
:1019E00012E7B1F1806F9BD10121201DFFF73EFD71
:1019F000002818BF054693E7B1F1806FA3D10121FC
:101A0000201DFFF733FD002818BF05469BE7B1F105
:101A1000806FABD10121201DFFF728FD002818BFE2
:101A20000546A3E7B2F1005FB6D1022104F1200020
:101A3000FFF7AAFDADE7BB6D43F08053BB65BB6DFF
:101A400003F080530193019B4FF001087FE600BF34
:101A500000100240024A136843F004031360704709
:101A60000010024070B5044600284AD0002383626B
:101A700090F85D3003F0FF021BB980F85C2002F0A3
:101A8000B3F90223216884F85D300B68E26823F023
:101A90004003B2F5E06F0B604FF000032ED91846FB
:101AA000B2F5706F18BFA362236B2BB9B2F5E06F6C
:101AB0008CBF022301232363A6686368A5693343AF
:101AC0002669334366693343E6693343266A334301
:101AD000A66A334305F4007633430B60636A1A4306
:101AE000636B2D0C1A4305F004052A4302430123BE
:101AF00000204A60206684F85D3070BD4FF480504D
:101B0000D0E7012070BD0000036A23F001030362E7
:101B1000036A70B5446882690D6822F4803222F04D
:101B200073022A438D6823F002032B431B4DA84206
:101B30000FD005F50065A8420BD005F54065A84219
:101B400007D005F58065A84203D005F58065A84259
:101B50001ED1CD6823F008032B43104DA84223F07B
:101B600004030FD005F50065A8420BD005F54065CC
:101B7000A84207D005F58065A84203D005F5806529
:101B8000A84205D124F440758E694C6934432C4336
:101B9000446082614A684263036270BD002C014068
:101BA000036A23F480730362036A70B54468C269F0
:101BB0000D6822F4803222F073022A438D6823F4E8
:101BC000007343EA0523164DA84203D005F50065CE
:101BD000A8420DD1CD6823F4006343EA0523104DDC
:101BE000A84223F480630ED005F50065A8420AD010
:101BF0000C4DA84207D005F58065A84203D005F535
:101C00008065A84206D124F440558E694C6934435E
:101C100045EA04144460C2614A68C263036270BD4D
:101C2000002C014000400140036A23F4805303620A
:101C3000036A30B54468C2690D6822F0807222F4EC
:101C4000E64242EA05228D6823F4005343EA053355
:101C50000E4DA8420FD005F50065A8420BD005F542
:101C60004065A84207D005F58065A84203D005F578
:101C70008065A84204D14D6924F4804444EA851467
:101C80004460C2614A680264036230BD002C0140B6
:101C9000036A23F480330362036A30B54468426DFB
:101CA0000D6822F4803222F070022A438D6823F4FA
:101CB000003343EA05430F4DA8420FD005F50065F8
:101CC000A8420BD005F54065A84207D005F5806510
:101CD000A84203D005F58065A84204D14D6924F4DB
:101CE000803444EA0524446042654A6882650362A0
:101CF00030BD00BF002C0140036A23F4801303624F
:101D0000036A30B54468426D0D6822F0807222F497
:101D1000E04242EA05228D6823F4001343EA0553AA
:101D20000E4DA8420FD005F50065A8420BD005F571
:101D30004065A84207D005F58065A84203D005F5A7
:101D40008065A84204D14D6924F4802444EA8524A6
:101D5000446042654A68C265036230BD002C0140A0
:101D60007047000003680A48DA6842F00102DA604E
:101D700099680140062908D09A680240B2F5803F70
:101D80001EBF1A6842F001021A600020704700BFAF
:101D900007000100704770477047704703681A6971
:101DA000910710B504460FD5DA6892070CD56FF08D
:101DB00002021A619B6901229907027700F085806F
:101DC000FFF7E9FF0023237723681A69520710D52C
:101DD000DA6850070DD56FF004021A619B69022280
:101DE00013F4407F2277204675D0FFF7D4FF0023FD
:101DF000237723681A6911070FD5DA6812070CD503
:101E00006FF008021A61DB6904229B0722772046E3
:101E100067D0FFF7C0FF0023237723681A69D00635
:101E200010D5DA68D1060DD56FF010021A61DB69A2
:101E3000082213F4407F2277204658D0FFF7ABFFEB
:101E40000023237723681A69D20708D5DA68D007F8
:101E500005D56FF001021A61204601F001FF2368E9
:101E60001A69110608D5DA68120605D56FF08002E6
:101E70001A61204600F017FA23681A69D00508D5C0
:101E8000DA68110605D56FF480721A61204600F0F9
:101E90000BFA23681A69520608D5DA68500605D588
:101EA0006FF040021A612046FFF777FF23681A6936
:101EB000910622D5DA6892061FD56FF020022046DF
:101EC0001A61BDE8104000F0EDB9FFF763FF20464E
:101ED000FFF762FF76E7FFF75DFF2046FFF75CFF45
:101EE00085E7FFF757FF2046FFF756FF93E7FFF719
:101EF00051FF2046FFF750FFA2E710BD304A0368AC
:101F0000904212D0B0F1804F0FD0A2F5943290429F
:101F10000BD002F58062904207D002F580629042B9
:101F200003D002F59432904219D14A6823F070032D
:101F30001343234A90421DD0B0F1804F1AD0A2F52E
:101F40009432904216D002F58062904212D002F58F
:101F5000806290420ED002F5943290420AD0194A23
:101F6000904207D002F58062904203D002F5806271
:101F7000904203D1CA6823F4407313434A6923F0A3
:101F80008003134303608B68C3620B6883620C4B4E
:101F900098420FD003F5006398420BD003F54063DD
:101FA000984207D003F58063984203D003F580631D
:101FB000984201D10B69036301234361704700BF5D
:101FC000002C01400040014010B50446A0B190F83B
:101FD0003D3003F0FF021BB980F83C20FFF7C0FE44
:101FE000022384F83D302068211DFFF787FF01237D
:101FF00084F83D30002010BD012010BD10B504460E
:10200000A0B190F83D3003F0FF021BB980F83C20EE
:1020100001F010FF022384F83D302068211DFFF7F6
:102020006DFF012384F83D30002010BD012010BD5C
:10203000036A23F010030362036A70B5446882697F
:102040000D6822F0807222F4E64242EA05228D6891
:1020500023F0200343EA0513164DA84203D005F5EB
:102060000065A8420DD1CD6823F0800343EA051333
:10207000104DA84223F040030ED005F50065A8429C
:102080000AD00D4DA84207D005F58065A84203D0BF
:1020900005F58065A84206D124F440658E694C6937
:1020A000344345EA8404446082614A68826303627F
:1020B00070BD00BF002C01400040014038B590F8D1
:1020C0003C30012B04464FF0020010D00123082AB7
:1020D00084F83C3084F83D0043D009D8FAB1042A92
:1020E0002ED00123002084F83D3084F83C0038BD18
:1020F000102A47D0142A56D00C2AF2D12068FFF7B4
:1021000093FD23680969DA6942F40062DA61DA69E9
:1021100022F48062DA61DA6942EA012230E0206862
:10212000FFF7F2FC236809699A6942F008029A6194
:102130009A6922F004029A619A690A439A61D0E787
:102140002068FFF775FF236809699A6942F4006205
:102150009A619A6922F480629A619A6942EA01223C
:10216000ECE72068FFF71CFD23680969DA6942F093
:102170000802DA61DA6922F00402DA61DA690A43F4
:10218000DA61AEE72068FFF783FD236809695A6DBD
:1021900042F008025A655A6D22F004025A655A6DDF
:1021A0000A435A659DE72068FFF7A6FD2368096981
:1021B0005A6D42F400625A655A6D22F480625A6583
:1021C0005A6D42EA0122ECE7036A01F01F0110B5E3
:1021D00001248C4023EA04030362036A8A401A4301
:1021E000026210BD10B5044601220068FFF7ECFF43
:1021F0002368144A93421FD002F5006293421BD019
:1022000002F54062934217D002F58062934213D0E8
:1022100002F5806293420FD099680B48014006296D
:1022200008D09A680240B2F5803F03D01A6842F0A5
:1022300001021A60002010BD5A6C42F400425A6438
:10224000EAE700BF002C01400700010090F83C3095
:10225000012B30B54FF002031FD00268104D80F8FB
:102260003D30AA425368946803D005F50065AA4240
:1022700003D14D6823F470032B430D68896823F064
:1022800070032B4324F080045360214301239160A9
:1022900080F83D30002380F83C30184630BD00BF48
:1022A000002C014070477047704700000268C16908
:1022B000F8B5044683680069156803436069034301
:1022C000BA480B432840034313605368E06823F483
:1022D000405303435360B64BA0699A421CBF236A24
:1022E0001843936823F4306303439360B14B9A42DD
:1022F00019D103F55843B04AD3F8883003F00303EB
:10230000B1F5004FD35C40F03881082B00F28F808C
:10231000DFE813F01A01CA00F9008D0014018D00E6
:102320008D008D003600A54B9A4207D103F5E633A8
:10233000A34AD3F8883003F00C03E1E7A14B9A429B
:1023400023D103F5E433D3F8883003F03003102BA6
:1023500000F0F1800BD8002B00F0F380B1F5004FB6
:102360004FF001024FF0000300F0F880A8E0202BAE
:1023700000F0C680302BF1D1B1F5004F40F0B880AD
:102380006068430803F58033C3E08F4B9A421ED147
:1023900003F5E233D3F8883003F0C003402B00F09C
:1023A000BB800AD87BB9824B9A4240F0CA80FFF7C3
:1023B0001BF80023B0BB02463AE0802B00F09D8062
:1023C000C02B00F0B0807A4B9A42C7D12FE07F4BF0
:1023D0009A4211D103F5E033D3F8883003F4407307
:1023E000B3F5807F00F09880DCD9B3F5007F00F072
:1023F0008480B3F5407FE4E76D4B9A42AED103F59C
:10240000C833D3F8883003F44063B3F5806F00F02D
:102410008380C7D9B3F5006F6FD0B3F5406FD0E7B5
:102420006B480223626802EB4201814205D9012216
:102430000023236663661046F8BDB0EB023FF6D872
:10244000082B2ED8DFE803F0052D1C2D242D2D2D73
:102450002700FEF7C9FF62684FF480715608002715
:10246000E1FB0067002330463946FDF7B1FE00224C
:10247000584BA0F540719942D9D82368D860D7E766
:102480005548550800230021401941F10001ECE7AF
:10249000FEF798FCDFE750080021002310F500004C
:1024A000F3E701220020E3E7FEF7B0FF4EE0FEF77E
:1024B0009BFF626800EB5203B3FBF2F39BB2002276
:1024C000A3F110004FF6EF718842B0D82168CB60BD
:1024D000AEE7FEF79BFFECE76068430803F5740383
:1024E00003F51053B3FBF0F3E8E7FEF76BFCE0E70E
:1024F0006068430803F50043F4E72D4B9A428FD000
:10250000B1F5004FE8D16068430803F1F47303F5B7
:102510009043B3FBF0F31FE0254B9A420BD1FEF73B
:1025200051FC042346E7224B9A427FF425AF4FF437
:102530000040082376E7B1F5004FD6D1FEF742FC04
:1025400004E0B1F5004FB2D1FEF74EFF61684A08D2
:1025500002EB4003B3FBF1F39BB20022A3F11000A6
:102560004FF6EF7188423FF662AF23F00F0120680B
:10257000C3F342030B43C3605AE7082B3FF657AF40
:1025800001A252F823F000BFAF240008D3240008B2
:10259000D92400082F240008EB2400082F24000869
:1025A0002F2400082F240008F1240008F369FFEF0E
:1025B0000080004000380140AC4100080044004069
:1025C000B041000800480040004C0040005000406E
:1025D0000024F400FFFC0F00000024F4436ADA0733
:1025E00010B506D50168846A4A6822F40032224395
:1025F0004A609C0706D50168C46A4A6822F48032A2
:1026000022434A60590706D50168046B4A6822F4E0
:10261000802222434A601A0706D50168446B4A6843
:1026200022F4004222434A60DC0606D50168846B2E
:102630008A6822F4805222438A60990606D501688E
:10264000C46B8A6822F4005222438A605A060FD56E
:102650000168046C4A6822F480122243B4F5801F9A
:102660004A6005D14A68446C22F4C00222434A60A1
:102670001B0606D50268816C536823F400230B43C4
:10268000536010BD2DE9F041069D04460F461646E5
:1026900098462168CA6937EA02030CBF012200226A
:1026A000B24202D00020BDE8F0816B1CF2D09DB98F
:1026B00023681A6822F4D0721A609A6822F0010224
:1026C0009A60202384F8713084F87230002384F8F3
:1026D00070300320BDE8F081FDF71AFFA0EB080081
:1026E0008542D6D2E4E773B5044600264667FDF777
:1026F0000FFF23681B681A07054617D423681B6859
:102700005B070AD56FF07E43009300222B464FF4FF
:1027100080012046FFF7B6FFA0B92023002084F8EF
:10272000713084F8700084F872300CE06FF07E43F2
:102730000093324603464FF400112046FFF7A2FFF4
:102740000028DBD0032002B070BD10B5044660B392
:1027500090F8713003F0FF021BB980F8702001F08F
:10276000A1FB2268242384F87130136823F001034D
:1027700013602046FFF79AFD012816D0636A13B153
:102780002046FFF72BFF23685A6822F490425A60D4
:102790009A6822F02A029A601A6842F001022046E2
:1027A0001A60BDE81040FFF79EBF012010BD000079
:1027B0000A4B013B01D1032070470269002AF8DA75
:1027C0000369064A43F001030361013AF3D0036948
:1027D00013F00103F9D11846704700BF410D030003
:1027E00084B038B505AD85E80E000A9B012B044680
:1027F0001BD1836B23F480338363C36823F4840386
:1028000023F04003C360C36823F44013C360119BEB
:10281000012B02BFC36843F48013C360FFF7C8FFF6
:10282000BDE83840002004B07047C36843F040035F
:10283000C360FFF7BDFF4FF48033A363F0E7836805
:1028400023F0010383600020704708B5C3680129A5
:1028500023F0C043C36008D1C36843F00053C36092
:102860003220FDF75BFE002008BD19B9C36843F0B4
:102870008043F4E7012008BD890141F02001064AA8
:102880000161013A05D0036913F02003F9D118461C
:1028900070470320704700BF410D03001023064A14
:1028A0000361013A05D0036913F01003F9D118460A
:1028B00070470320704700BF410D0300D0F8003877
:1028C0001943C0F8001800207047000084B02DE9BB
:1028D000F041044607A880E80E000023119F8846B7
:1028E000194603F1400204EB820201330F2B5160C1
:1028F000F7D1A36B43F40013A3635FB9A36B23F475
:102900000013A363236843F040032360236843F06C
:10291000800323600025C4F8005ED4F80038C4F8B2
:10292000003803212046FFF7C9FF04F50066102197
:102930002046FFF7A1FF2046FFF7B0FF35612B4689
:1029400075612946F56104F510624FF090404FF033
:1029500000654FF67F3E43452FD1002104F53062DC
:1029600008464FF090454FF0006E4FF67F3C8B428B
:1029700034D1336923F4807333610023A3616FF092
:1029800080436361A36943F01003A361A2691C4BF8
:102990001343A3610D9B1BB1A36943F00803A3611B
:1029A000012F01BFA36943F0804343F00403A361F7
:1029B000BDE8F041002004B07047D2F800C0BCF17F
:1029C000000F09DA33B9156011610133C2F808E06C
:1029D0002032C0E71060F7E71160F5E7D2F8008019
:1029E000B8F1000F0ADA39B9C2F800E0106101311C
:1029F000C2F808C02032BAE71560F7E71060F5E7C3
:102A000000383C8008B5D0F8043843F00203C0F821
:102A100004380320FDF782FD002008BD08B500F052
:102A20003FFC002008BD30B5B0F90840028A0B46D3
:102A300090E8220085B0842C14BF0334002403A83E
:102A400001900094284600F05BFB01280CBF03981E
:102A5000002005B030BD08B5002808BF012000F0F7
:102A60006DFD002008BD08B500F0C6FD012803D0AB
:102A7000BDE8084000F016B908BD00F10803436046
:102A80004FF0FF32C3600361002382600360704730
:102A900000230361704743684B609A688A609A68B4
:102AA00051609960036808610133036070470A68E8
:102AB000531C30B50AD103695A684A6091608B6033
:102AC0005960036808610133036030BD00F10803F9
:102AD0005C682568AA42EFD32346F9E7416882681B
:102AE00003698A60826851605968884208BF5A60E9
:102AF000002202611A68013A1A60186870470000E3
:102B000082B0002301930D4B1B68013308D04FF0B6
:102B1000500383F31188BFF36F8FBFF34F8FFEE72E
:102B20004FF0500383F31188BFF36F8FBFF34F8FC4
:102B3000019B002BFCD002B0704700BF00000020BA
:102B400008480068006880F308884FF0000080F3B0
:102B5000148862B661B6BFF34F8FBFF36F8F00DF8B
:102B600000BF000008ED00E0DFF80C00016841F450
:102B7000700101607047000088ED00E04FF0807345
:102B800040F8043C074B40F80C3C21F001016FF089
:102B9000020340F8081C40F8202C40F8243C44383C
:102BA000704700BF012B000800000000000000007B
:102BB000074B19680868B0E8F04F80F30988BFF345
:102BC0006F8F4FF0000080F311887047AFF30080E3
:102BD000200C00204FF0500383F31188BFF36F8F58
:102BE000BFF34F8F0A4A13680133012B13600DD1D5
:102BF000084B1B6813F0FF0F08D04FF0500383F30E
:102C00001188BFF36F8FBFF34F8FFEE7704700BF90
:102C10000000002004ED00E0084A136843B94FF0BB
:102C2000500383F31188BFF36F8FBFF34F8FFEE71D
:102C3000013B13600BB983F311887047000000203B
:102C4000EFF30980BFF36F8F154B1A681EF0100F5A
:102C500008BF20ED108A20E9F04F10602DE909002F
:102C60004FF0500080F31188BFF34F8FBFF36F8F89
:102C700000F088FC4FF0000080F3118809BC19684F
:102C80000868B0E8F04F1EF0100F08BFB0EC108AD3
:102C900080F30988BFF36F8F704700BFAFF30080E8
:102CA000200C002008B54FF0500383F31188BFF3C8
:102CB0006F8FBFF34F8F00F037FB18B1034B4FF00E
:102CC00080521A60002383F3118808BD04ED00E0F0
:102CD000084A0949002313600B60084B4FF47A71CE
:102CE0001B68B3FBF1F30649013B0B60072313603C
:102CF000704700BF10E000E018E000E00400002092
:102D000014E000E0394B3A4A13B51968914208D1F2
:102D10004FF0500383F31188BFF36F8FBFF34F8FD2
:102D2000FEE71A68334B9A4208D14FF0500383F301
:102D30001188BFF36F8FBFF34F8FFEE72E4B1A78CA
:102D4000D2B20192FF221A701B782C4ADBB28DF8A6
:102D500003309DF8033003F050031370284B072213
:102D60001A6000219DF80300000602F1FF340DD423
:102D700001B11A601A68032A11D04FF0500383F38F
:102D80001188BFF36F8FBFF34F8FFEE79DF80320CD
:102D90005200D2B28DF8032001212246E2E712024E
:102DA00002F4E0621A60019B134ADBB21370154B08
:102DB0001A6842F470021A601A6842F070421A608F
:102DC000FFF786FF104B00241C60FFF7CDFE0F4A73
:102DD000136843F040431360FFF7B2FE00F0D2FBEC
:102DE000FFF78EFE204602B010BD00BF00ED00E0F0
:102DF00071C20F4170C20F4100E400E048000020A2
:102E00004C00002020ED00E00000002034EF00E046
:102E100010B50F4B1A68824218D35C6819198842A2
:102E200001BF4168184609195960446801198A426E
:102E300007D1084909688A421FBF516812680919F9
:102E400041609842026018BF186010BD1346E1E768
:102E5000180C0020500000202DE9F041044600F03D
:102E60005BFA3E493E4D0B680BBB3E4A56071FBFFF
:102E7000D01D20F0070002F6B8331B1A14BF02461B
:102E800040F6B8331344083B23F00703364E0B607B
:102E900000207060326058601860981A1360334BDD
:102EA00050601860324B18604FF000432B602F6861
:102EB000274216D1002C41D004F1080358071CBF4B
:102EC00023F00703083363B1294A1668B3429046DA
:102ED00007D8254A15686868834204D809688D4276
:102EE00007D100242AE02C68002CF7D02A4625467A
:102EF000F1E7296814681160C21A102A0FD9E8187E
:102F0000410708D04FF0500383F31188BFF36F8F50
:102F1000BFF34F8FFEE742606B60FFF779FF134905
:102F20006B680868F61A1F4386424FF00003C8F822
:102F3000006038BF0E6008346F602B6000F086FAC6
:102F4000630708D04FF0500383F31188BFF36F8FEE
:102F5000BFF34F8FFEE72046BDE8F0815000002010
:102F60000C0C002054000020180C0020140C002031
:102F7000100C002010B5044670B3184A50F8043CF9
:102F80001268134208D14FF0500383F31188BFF346
:102F90006F8FBFF34F8FFEE750F8081C41B14FF021
:102FA000500383F31188BFF36F8FBFF34F8FFEE79A
:102FB00023EA020340F8043C00F0AEF9084A54F852
:102FC000043C1168A4F108000B441360FFF720FFD4
:102FD000BDE8104000F03ABA10BD00BF0C0C002054
:102FE000100C0020064A13681968064B19B94FF0F7
:102FF000FF321A6070471268D268D2685268F8E7E8
:10300000240C0020FC0C0020F8B51B4B1B4E1D6847
:103010000446306804300F46FFF760FD334640B980
:103020003168174EC96A32680120884022EA0002DE
:103030003260621C07D137B1196812480431BDE80B
:10304000F840FFF728BD2C441A68A542546007D900
:103050000D4A10681968BDE8F8400431FFF727BD34
:103060000A4A106819680431FFF721FD084B1A68F5
:10307000944238BF1C60F8BD440D0020200C002095
:10308000CC0C00201C0D0020280C0020240C00205B
:10309000FC0C002080B5DFF86480144F144C154EF2
:1030A000236863B9144B1B68012BF8D94FF0805388
:1030B000C8F80030BFF34F8FBFF36F8FEEE7FFF715
:1030C00089FDFB68DD68281DFFF708FD3368013BBB
:1030D00033602368013B2360FFF79EFD286BFFF7F9
:1030E00049FF2846FFF746FFDAE700BF300D002012
:1030F000BC0C0020B80C00202C0C002004ED00E0DB
:103100002DE9F84F4FEA820A804650460F4699460D
:103110000B9EFFF7A1FE0546002800F09680542084
:10312000FFF79AFE0446002800F08C80AAF1040AFA
:10313000056355447B1E25F0070A00F134020F3762
:10314000597802F8011B13F8011F09B1BB42F7D1EE
:103150000A9D062D28BF06254FF0000B271DE562AE
:103160006564384684F843B0C4F848B0FFF790FC73
:10317000C5F1070504F11800FFF78AFCC4F84CB04C
:103180002461A561646284F850B04A4641465046C5
:10319000FFF7F4FC206006B13460FFF71BFD324BF3
:1031A000324E1A68DFF8F08001321A603568002D5F
:1031B0004ED134601B68012B1DD108EB050014357E
:1031C000FFF75BFC8C2DF8D1DFF8D090284D4846F6
:1031D000FFF753FC2846FFF750FC2648FFF74DFC4D
:1031E0002548FFF74AFC2548FFF747FC244BC3F866
:1031F0000090244B1D60244A244913680868013359
:103200001360E26A012505FA02F3034314200B6000
:1032100000FB02803946FFF73EFCFFF7FDFC1C4B2C
:103220001B6863B13368DA6AE36A9A4207D2194BC2
:103230004FF080521A60BFF34F8FBFF36F8F284655
:10324000BDE8F88F2846FFF795FE4FF0FF35F6E70B
:103250000F4B1B68002BCED13368DA6AE36A9A42BF
:1032600098BF3460C7E700BFB80C0020200C0020D6
:10327000E40C0020040D0020300D00201C0D002067
:10328000240C0020280C0020C80C0020CC0C0020AE
:10329000180D002004ED00E02C0C0020D00C0020C4
:1032A00013B5174B0193002400942346802215493F
:1032B0001548FFF725FF012814D14FF0500383F381
:1032C0001188BFF36F8FBFF34F8F104B4FF0FF325A
:1032D0001A600F4B18600F4B1C6002B0BDE8104025
:1032E000FFF710BD013008D14FF0500383F3118870
:1032F000BFF36F8FBFF34F8FFEE702B010BD00BF6B
:10330000F80C0020BD41000895300008FC0C00209E
:10331000180D0020440D0020024A13680133136089
:10332000704700BFC40C00202DE9F84F3C4B1B68D0
:10333000002B53D13B4B1C6801341C60BCB93A4B89
:103340001A68126842B14FF0500383F31188BFF33B
:103350006F8FBFF34F8FFEE7344A1968106818600B
:103360001160334A136801331360FFF73BFE314DA0
:10337000314F2B689C424FF0000B3ED3DFF8A88002
:10338000DFF8C490D8F80020126872BB4FF0FF320B
:103390002A6032E006F1040A5046FFF79FFBB16A4B
:1033A00019B106F11800FFF799FBF06AD9F800305F
:1033B000012202FA00F11943204BC9F800104FF026
:1033C000140E51460EFB0030FFF765FB3868F16ABA
:1033D000C26A914228BF4FF0010BD3E7184A136825
:1033E000013313604FF0000B11E0D8F80020D268D1
:1033F000D66871688C42CDD229603A680F4BD16A89
:1034000014224A439A58022A28BF4FF0010B0D4A52
:103410001268002A18BF4FF0010B5846BDE8F88F1C
:10342000C40C0020440D0020240C0020280C002097
:10343000000D0020FC0C0020200C00202C0C002093
:10344000C00C0020480D0020CC0C00202DE9F843D2
:10345000314C236843B94FF0500383F31188BFF315
:103460006F8FBFF34F8FFEE7FFF7B4FB2368013B7D
:10347000236024682CB10024FFF7CEFB2046BDE872
:10348000F883264B1B68002BF5D0DFF8A890244F5B
:10349000DFF8A480D9F80030E3B90CB1FFF7A2FD42
:1034A000204D2C6844B1204E0127FFF73DFF00B1AD
:1034B0003760013CF9D12C601B4B1B68002BDAD024
:1034C0001A4B4FF080521A60BFF34F8FBFF36F8FCC
:1034D0000124D1E7D9F80C30DC68261D04F118006E
:1034E000FFF7FCFA3046FFF7F9FAE26A396801257E
:1034F00005FA02F314200B4300FB028031463B60C7
:10350000FFF7C9FA0A4BE26A1B68DB6A9A4224BFDA
:10351000054B1D60BEE700BFC40C0020B80C0020A6
:10352000CC0C0020C00C0020480D002004ED00E071
:10353000200C0020040D00202C0C002008B540B900
:103540000E4B4FF080521A60BFF34F8FBFF36F8F57
:1035500008BD0B4B196841B14FF0500383F311883C
:10356000BFF36F8FBFF34F8FFEE7FFF7D5FEFFF777
:103570004BFDFFF76BFF0028E2D008BD04ED00E033
:10358000C40C0020174B1A68174B10B512B101225A
:103590001A6010BD1A60154B1B68B3FA83F3DBB2D7
:1035A000C3F11F03142212495A4388188C5844B996
:1035B0004FF0500383F31188BFF36F8FBFF34F8F2A
:1035C000FEE744680832646844600A44944204BFD9
:1035D00062684260142202FB03135B68DA68054BE1
:1035E000D6E700BFC40C0020480D0020CC0C002002
:1035F0002C0C0020200C0020054B1B6833B1054B20
:103600001B68002B0CBF0220002070470120704770
:10361000180D0020C40C0020F0B5B9B0FDF7C4FAB5
:103620002F4AD2F8903023F01803C2F890301423B8
:10363000059300230C936023012402250D93072793
:10364000282305A807940B940F95109411941293B6
:10365000139714951595FDF709FC00B1FEE70F26A9
:10366000032302900390049004216846009601937E
:10367000FDF722FE00B1FEE71A4B16934FF0806370
:1036800031931823249026902B903690199316A8E6
:103690004FF48013179418941A971B951C951D933B
:1036A000FDF7F0FF00B1FEE74FF40070FDF78CFA74
:1036B000044600B1FEE7FDF791FE4FF47A73B0FBCC
:1036C000F3F0FCF78BFF0420FCF79EFFFEF7C2F936
:1036D000224631464FF0FF30FCF740FF39B0F0BDD5
:1036E00000100240852001002DE9804891B0FCF7D0
:1036F000F7FEFFF791FFA94BA948DA6CDFF8C48207
:1037000042F01002DA64DA6C02F010020192019ABF
:10371000DA6C42F00402DA64DA6C02F0040202921B
:10372000029ADA6C42F00102DA64DA6C02F0010209
:103730000392039ADA6C42F00202DA64DA6C02F065
:1037400002020492049ADA6C42F00802DA64DB6C3A
:1037500003F008030593002240F21511059BFDF7C5
:10376000DBF8002248F258114FF09040FDF7D4F8F2
:1037700000224FF234018B48FDF7CEF8002243F2CD
:1037800081018948FDF7C8F800224FF4107187487D
:103790000024FDF7C1F84FF0010A40F2151309A902
:1037A0007F480993CDF828A00B940C94FCF7D8FF20
:1037B0006A2309A97A480993CDF828800B94FCF76D
:1037C000CFFF4FF40053099309A9794B77480A9327
:1037D0004FF00B090B94FCF7C3FF3F2309A9734873
:1037E000099302250327CDF8289008260B94FCF7AF
:1037F000B7FF09A94FF090404FF0040B09970C97C1
:103800000A950B940D96FCF7ABFF09A94FF0904079
:10381000CDF824B00A950B940C94CDF834A0FCF7A5
:103820009FFF48F2581309A94FF090400993CDF833
:1038300028A00B940C94FCF793FF09A95948CDF8E4
:10384000289009950B94FCF78BFF4FF2340309A9DC
:1038500054480993CDF828A00B940C94FCF780FFF2
:103860004CF6044309A950480993CDF828800B94DD
:10387000FCF776FF43F2810309A94B480993CDF881
:1038800028A00B940C94FCF76BFF4FF4107309A95C
:1038900046480993CDF828A00B940C94FCF760FFE0
:1038A0004FF4C07309A941480993CDF828800B94BF
:1038B0004FF00508FCF754FF09A93B480C97099500
:1038C0000A950B94CDF83480FCF74AFF0723782241
:1038D00009A935480D9309920C970A950B94FCF7AA
:1038E0003FFF09A92F4809960A940B944FF4407999
:1038F000FCF736FF122209A92A480A920C97CDF844
:103900002490CDF82CA0CDF834B0FCF729FF224646
:1039100041461720FCF722FE1720FCF753FE2246F3
:1039200041462820FCF71AFE2820FCF74BFE2148D0
:10393000214B03604FF4807780F804A08460C56059
:10394000046144618761C461C0F820B04462C0F87A
:1039500028A0C4620463FCF78FFE00B1FEE7174C99
:10396000174BDFF86480A06020616061A061E061B6
:103970002062204684E80801C4F80CA0FCF7DEFFB2
:10398000014600B1FEE72046FDF729F8014600B1E7
:10399000FEE72046FDF749F8C0B1FEE700100240FF
:1039A0000010004800040048000C004800080048CF
:1039B00000002110540D0020206001401012002052
:1039C0000058004000001110EC9C9010514B524ADE
:1039D000D8604FF0FF0C58619861184683E80410D6
:1039E000C3F808A0C3F810A0FDF752F900B1FEE734
:1039F0004A4B4B4A98604FF4827E83E804404FF470
:103A00000072186158619A61D861186258629862B0
:103A1000072218631846C3F80C90DA625E63FEF75B
:103A200021F800B1FEE73F4B3F4A98604FF4E13682
:103A3000D86018610C249861D861186258621846E1
:103A400083E844005C61FEF780FE00B1FEE7374B7F
:103A5000374A9860D86018619861D86118625862D6
:103A6000184683E844005C61FEF76FFE00B1FEE794
:103A7000304B4FF0A04206245861D861186258625A
:103A800098621863D862184683E81400DD609D616F
:103A9000FCF7F0FF00B1FEE7274B2849986014229D
:103AA00018619861184683E80600DF60FEF7A6FA01
:103AB00000B1FEE7002306A91F4806930893FEF70E
:103AC000C5FB00B1FEE7602309930B9010230D9016
:103AD000042209A918480A93FEF7F0FA00B1FEE79C
:103AE000082209A91448FEF7E9FA064600B1FEE7E4
:103AF000134D114800F0B2F90FCD09AC0FC42B687B
:103B00002360314609A8FEF78EFF0E4B1860FEF7C2
:103B100085FFFEE778130020001000A09C12002013
:103B2000003C00400013002000380140900D0020B0
:103B300000480040080E00205C12002000040040F5
:103B4000984100088C0D002070B50D4D06460024EC
:103B500046FA04F202F0010204212846FCF7DCFEDA
:103B6000012208214FF09040FCF7D6FE01340022DC
:103B700008214FF09040FCF7CFFE082CE8D170BD33
:103B80000004004810B50022044608214FF0904080
:103B9000FCF7C2FE002210214FF09040FCF7BCFE63
:103BA000012204211248FCF7B7FE002240214FF009
:103BB0009040FCF7B1FEC4F10700012404FA00F0C4
:103BC000C0B2FFF7C1FF0520FEF745FF22464021A6
:103BD0004FF09040FCF7A0FE0520FEF73CFF0022CE
:103BE00040214FF09040BDE81040FCF795BE00BF6B
:103BF0000004004800B589B06023019302900023BF
:103C0000082201A9034803930593FEF757FA09B068
:103C10005DF804FB5C12002010B504460846FFF76F
:103C2000E9FF2046BDE81040FFF7ACBF08B5E02132
:103C30000220FFF7F1FFE0210120BDE80840FFF777
:103C4000EBBF000008B504210448FEF7CBFA0821B9
:103C50000248FEF7C7FAFFF7E9FFFEE75C12002013
:103C60000268034B9A4201D1FCF74ABC704700BF7F
:103C700000480140214B07B51A6E42F001021A6656
:103C80001A6E02F001020092009A9A6D42F0805280
:103C90009A659B6D03F0805301930320019BFCF711
:103CA0004BFC002211466FF00B00FCF757FC002282
:103CB00011466FF00A00FCF751FC002211466FF02C
:103CC0000900FCF74BFC002211466FF00400FCF7E2
:103CD00045FC002211466FF00300FCF73FFC002278
:103CE0000F216FF00100FCF739FC00220F214FF08B
:103CF000FF30FCF733FC03B05DF804FB001002401A
:103D00007FB50E4B1B68B3B90D4A0E48116E41F0DA
:103D100080711166126E039302F080720092009A15
:103D200004934FF4207201920623022201A9029209
:103D30000593FCF715FD07B05DF804FB4C0D002062
:103D400000100240001000487FB502680F4B9A42F5
:103D500019D14FF44063019312230293012303937B
:103D60000323049304230DEB030109480593FCF797
:103D7000F7FC084B9A6D42F480029A659B6D03F440
:103D800080030093009B07B05DF804FB00580040DF
:103D900000040048001002407FB50268104B9A42B0
:103DA0001BD103F1204303F5003301A91A6D0D481F
:103DB00042F480721A651B6D03F480730093009BBC
:103DC0004FF47C43019302230293002303930323C4
:103DD00004930A230593FCF7C3FC07B05DF804FBCA
:103DE000001000A0001000487FB502680F4B9A42F7
:103DF00019D103F5EA3301A99A6D0D4842F4004246
:103E00009A659B6D03F400430093009B4FF4E053CD
:103E100001930223029300230393032304930623B5
:103E20000593FCF79DFC07B05DF804FB003C0040E7
:103E3000000800480268084B9A4282B00AD103F594
:103E400003339A6D42F002029A659B6D03F0020300
:103E50000193019B02B070470004004030B5026836
:103E60000E4B9A4287B016D102240025802301A967
:103E70004FF0904001930294039504950594FCF74C
:103E80006FFC012301A90648019302940395049550
:103E90000594FCF765FC07B030BD00BF000400408E
:103EA0000004004800B503681C4A934289B01AD147
:103EB0001B4B1C481A6E42F480421A661B6E03F4B8
:103EC00080430193019BC0230393022304930023A7
:103ED0000593032306930723079303A9FCF740FCEC
:103EE00009B05DF804FB104A9342F9D10C4B0F481E
:103EF0009A6D42F480229A659B6D03F480230293AD
:103F0000029B4FF440730393022304930023059311
:103F1000032306930723079303A9DFE70038014033
:103F2000001002400004004800480040000C004817
:103F300010B50368B3F1A04F88B038D100244FF416
:103F4000007303A94FF09040039304940594FCF789
:103F500007FC4FF4E05303930594022304F18044DB
:103F600004F5043404930323069303A90A234FF0B2
:103F700090400793FCF7F4FBE36C43F48053E36455
:103F8000E36C03F480530193019BA36DDB0010D419
:103F9000A36D43F08053A365A36D03F08053029398
:103FA000029BFCF747FEA36D23F08053A36508B086
:103FB00010BDFCF73FFEFAE710B5014688B00022BD
:103FC0001A20FCF7CBFA1A20FCF7FCFA144B154C1C
:103FD0001A6E42F480221A661B6E03F48023029349
:103FE00001A903A8029BFDF723FAFDF70FFA0E4B78
:103FF000236040F2E733E3600C4BB0FBF3F0013891
:104000000023606020462361A360FDF7DDFF20B937
:104010002046FDF7A7FE08B010BD0120FBE700BF5A
:1040200000100240BC1300200048014040420F0035
:104030007047FEE7FEE7FEE7FEE77047FEF713BDB9
:1040400008B52020FCF76EFC4020FCF76BFC8020BC
:10405000FCF768FC4FF48070BDE80840FCF762BCD8
:104060000148FDF79BBE00BFBC13002008B54FF40C
:104070008060FCF757FC4FF40060FCF753FC4FF4F2
:104080000050FCF74FFC4FF48040FCF74BFC4FF422
:104090000040BDE80840FCF745BC00000F49D1F8DE
:1040A000883043F47003C1F888300D4B1A68002043
:1040B00042F001021A6098601A6822F0A85222F4B5
:1040C00010221A604FF48052DA601A6822F48022BB
:1040D0001A6098614FF000638B60704700ED00E05C
:1040E00000100240DFF834D0002103E00C4B5B5895
:1040F000435004310B480C4B42189A42F6D30B4AFA
:1041000002E0002342F8043B094B9A42F9D3FFF73F
:10411000C5FF00F011F8FFF7E7FAFEE70080012085
:1041200028420008000000200800002008000020AD
:10413000FC130020FEE7000070B50D4E0D4CA41BD3
:10414000A4100025A54209D10B4E0C4C00F018F824
:10415000A41BA4100025A54205D170BD56F825303A
:1041600098470135EEE756F8253098470135F2E7D4
:104170002042000820420008204200082442000893
:10418000F8B500BFF8BC08BC9E467047F8B500BF44
:08419000F8BC08BC9E46704714
:10419800C2410008453C0008000000000000000083
:1041A8008000000001040208001010100410101014
:1041B800021010100849444C450064656661756C2E
:1041C800745461736B0000000000000000000102DD
:1041D80003040607080900000000010203040000A8
:1041E800A0860100400D0300801A060000350C006F
:1041F80040420F0080841E0000093D0000127A0032
:104208000024F40000366E010048E801006CDC026E
:08421800E8BFFF7F0100000078
:04422000B5010008DC
:0442240091010008FC
:08422800AAAAAAAA00093D00A0
:04000005080040E5CA
:00000001FF
