:020000040800F2
:100000000080012075560008C1540008C354000840
:10001000C5540008C7540008C95400080000000077
:100020000000000000000000000000001135000882
:10003000CB54000800000000A1350008CD54000892
:10004000C5560008C5560008C5560008C556000824
:10005000C5560008C5560008C5560008C556000814
:10006000C5560008C5560008C5560008C556000804
:10007000C5560008C5560008C5560008C5560008F4
:10008000C5560008C5560008C5560008C5560008E4
:10009000C5560008C5560008C5560008D1540008CA
:1000A000C5560008C5560008F1540008C55600089A
:1000B000C5560008C5560008C5560008C5560008B4
:1000C000C5560008C5560008C5560008C5560008A4
:1000D000C5560008C5560008C5560008C556000894
:1000E000FD540008C5560008C5560008C55600084E
:1000F000C5560008C5560008C5560008C556000874
:10010000C5560008C5560008C5560008C556000863
:10011000C5560008C5560008C5560008C556000853
:10012000C5560008C5560008C5560008C556000843
:10013000C5560008C5560008C5560008C556000833
:10014000C5560008C5560008C5560008C556000823
:10015000C5560008C5560008C5560008C556000813
:10016000C5560008C5560008C5560008C556000803
:10017000C5560008C5560008000000000000000039
:08018000C5560008C556000831
:1001900010B5054C237833B9044B13B10448AFF3C1
:1001A00000800123237010BD6C00002000000000BF
:1001B000006B000808B5034B1BB103490348AFF3BC
:1001C000008008BD0000000070000020006B0008E7
:1001D000034613F8012B002AFBD1181A0138704787
:1001E00001F0FF01102A2BDB10F0070F08D010F8E8
:1001F000013B013A8B422DD010F0070F42B3F6D1EC
:10020000F0B441EA012141EA014122F007047FF004
:1002100000070023F0E80256083C85EA010586EA5B
:10022000010685FA47F5A3FA87F586FA47F6A5FA97
:1002300087F68EB9EED1F0BC01F0FF0102F00702A3
:1002400032B110F8013B013A83EA010313B1F8D14E
:100250000020704701387047002D06BF354603382F
:10026000073815F0010F07D1013015F4807F02BF68
:10027000013015F4C03F0130F0BC0138704700BFB9
:1002800053B94AB9002908BF00281CBF4FF0FF31FD
:100290004FF0FF3000F07AB9ADF1080C6DE904CEF3
:1002A00000F006F8DDF804E0DDE9022304B0704751
:1002B0002DE9F0478C460D460446089E002B51D18F
:1002C0008A4217466DD9B2FA82FEBEF1000F0BD0FA
:1002D000CEF1200C01FA0EF520FA0CFC02FA0EF712
:1002E0004CEA050C00FA0EF44FEA174A250CBCFB49
:1002F000FAF81FFA87F90AFB18CC45EA0C4508FB07
:1003000009F3AB420AD9ED1908F1FF3280F02381DD
:10031000AB4240F22081A8F102083D44ED1AA4B29C
:10032000B5FBFAF00AFB105544EA054400FB09F955
:10033000A14509D9E41900F1FF3380F00A81A145F4
:1003400040F2078102383C44A4EB090440EA08402B
:100350000021002E61D024FA0EF400233460736073
:10036000BDE8F0878B4207D9002E54D0002186E8E3
:1003700021000846BDE8F087B3FA83F1002940F078
:100380008E80AB4202D3824200F2FA80841A65EB7F
:1003900003050120AC46002E3FD086E81010BDE8D2
:1003A000F08712B90127B7FBF2F7B7FA87FEBEF163
:1003B000000F34D1EB1B3A0C1FFA87FC0121B3FB71
:1003C000F2F8250C02FB183345EA03450CFB08F351
:1003D000AB4207D9ED1908F1FF3002D2AB4200F26F
:1003E000D1808046ED1AA3B2B5FBF2F002FB1055A6
:1003F00043EA05440CFB00FCA44507D9E41900F1CD
:10040000FF3302D2A44500F2B8801846A4EB0C04D6
:1004100040EA08409DE731463046BDE8F087CEF11E
:10042000200405FA0EF307FA0EF720FA04F83A0C46
:1004300025FA04F448EA0308B4FBF2F14FEA184540
:1004400002FB11441FFA87FC45EA044501FB0CF34B
:10045000AB4200FA0EF409D9ED1901F1FF3080F03A
:100460008A80AB4240F2878002393D44EB1A1FFA82
:1004700088F5B3FBF2F002FB103345EA034500FBBD
:100480000CF3AB4207D9ED1900F1FF386FD2AB4244
:100490006DD902383D44EB1A40EA01418FE7C1F1C2
:1004A000200722FA07F88B4005FA01F448EA030313
:1004B00020FA07FE4FEA134CFD404EEA040EB5FB4E
:1004C000FCF94FEA1E440CFB19551FFA83F844EA65
:1004D000054509FB08F4AC4202FA01F200FA01FA00
:1004E00008D9ED1809F1FF3043D2AC4241D9A9F146
:1004F00002091D442D1B1FFA8EFEB5FBFCF00CFB00
:1005000010554EEA054400FB08F8A04507D9E41849
:1005100000F1FF3529D2A04527D902381C4440EA12
:100520000940A4EB0804A0FB02894C45C6464D4691
:1005300015D312D056B1BAEB0E0364EB050404FADE
:1005400007F7CB401F43CC40376074600021BDE803
:10055000F0871846F8E69046E0E6C245EAD2B8EBE6
:10056000020E69EB03050138E4E72846D7E7404669
:1005700091E78146BEE7014678E702383C4445E70B
:10058000084608E7A8F102083D442BE7704700BF82
:1005900010B5032000F028F8002004F055FF0446B1
:1005A00018B904F099FD204610BD0124FBE70000B6
:1005B000024A136801331360704700BFC80D002062
:1005C000014B1868704700BFC80D002038B50446BD
:1005D000FFF7F6FF631C054618BF0134FFF7F0FF75
:1005E000401B8442FAD838BD074AD36823F4E0633D
:1005F0001B041B0C43F0BF63000243F4003300F400
:10060000E0600343D360704700ED00E0174B30B566
:10061000DC68C4F30224C4F10703251D042B28BFA2
:100620000423062D4FF0010505FA03F303F1FF3310
:100630008CBF033C00241940A14005FA04F4013C9E
:100640002240002842EA01024FEA0212AFBF00F145
:10065000604000F00F00064BD2B2A5BF00F561402C
:10066000D2B21A5480F8002330BD00BF00ED00E084
:1006700014ED00E04209012300F01F0003FA00F02E
:10068000014B43F82200704700E100E00138B0F16F
:10069000807F0AD2064B074A5860F02182F8231067
:1006A0000020072298601A6070470120704700BF41
:1006B00010E000E000ED00E0044B1A6804280CBFD5
:1006C00042F0040222F004021A60704710E000E0D9
:1006D000144B984217D02033984216D020339842BA
:1006E00015D02033984214D02033984213D02033B1
:1006F000984212D02033984211D0203398420CBF38
:10070000072000207047002070470120704702201A
:10071000704703207047042070470520704706206B
:10072000704700BF0060014038B50446002867D01C
:100730000068344DFFF7CCFF55F82030002B5FD117
:10074000204604F00FFD304B1A6801321A601B6816
:10075000012B19D12D4B1A6822F080421A601A68B9
:10076000A1680A431A601A6822F47F021A6022798B
:10077000012A05D1E1681A68013942EA01421A608A
:100780001A6842F000421A6020686169036823F425
:1007900071430360236902680B43A1690B43134350
:1007A00003600368216A23F00F030360E3690268B2
:1007B0000B43134303608368616AA26A23F45F03F7
:1007C00083608368013A0B4343EA024383604368D2
:1007D000226B03F007034360436843EAC203E26A03
:1007E00043EA02234360036843F08003036001236C
:1007F00084F83430FFF76CFF45F82040002038BD06
:10080000012038BD88000020A800002000600140C1
:100810002DE9F04F85B00B68DFF8A881674C019394
:100820000023019ADA4002D105B0BDE8F08F01261D
:10083000019A9E4012EA060E00F0B1804A6822F04A
:100840001007022F16D14FEAD30900EB890903F0F4
:10085000070AD9F820504FEA8A0A4FF00F0C0CFA19
:100860000AFC25EA0C0C0D6905FA0AF545EA0C05A7
:10087000C9F820504FEA430C0325D0F800B005FA20
:100880000CF5ED4302F0030A0BEA050B0AFA0CF92A
:10089000013F49EA0B09012FC0F8009011D8876881
:1008A00005EA0709CF6807FA0CF747EA09078760E6
:1008B000476827EA0609C2F300179F4047EA09077D
:1008C0004760BAF1030F07D1C76A27EA0606C2F3E9
:1008D000C0079F403E43C662C66835408E6806FA30
:1008E0000CF63543C560D50059D5D8F8605045F0B1
:1008F0000105C8F86050D8F8605023F0030606F1EF
:10090000804605F0010506F58036039503F0030CDB
:10091000039DB5684FEA8C0C0F2707FA0CF7B0F16E
:10092000904F25EA07073CD0254DA8423BD005F55E
:100930008065A84239D005F58065A84237D005F515
:100940008065A84235D005F58065A84233D005F50D
:100950008065A84214BF0725062505FA0CF53D431E
:10096000B56025686FEA0E06D70354BF35404EEADE
:10097000050525606568970354BF35404EEA0505B7
:100980006560A568D70254BF35404EEA0505A560ED
:10099000E568920254BF35404EEA0505E560013333
:1009A0003FE70025D9E70125D7E70225D5E703254D
:1009B000D3E70425D1E70525CFE700BF00040140B8
:1009C00000040048001002402DE9F74F474CDFF8C3
:1009D00024A1DFF824B100234FF001084FF00309F0
:1009E00031FA03F202D103B0BDE8F08F08FA03F642
:1009F00011EA060201926AD007685A0009FA02F267
:100A00004FEAD30C174300EB8C0C0760DCF8207026
:100A100003F0070E3D464FEA8E0E0F2707FA0EFE33
:100A200025EA0E0ECCF820E0D0F808E0D2430EEA1A
:100A3000020EC0F808E0D0F804E0F6430EEA060E15
:100A4000C0F804E0D0F80CE002EA0E02C260C26A0C
:100A50001640C66223F0030606F1804606F580368E
:100A600003F0030EB2684FEA8E0E07FA0EF7B0F1EC
:100A7000904F02EA070C2CD01D4A90422BD002F571
:100A80008062904229D002F58062904227D002F520
:100A90008062904225D0504525D058450CBF062293
:100AA000072202FA0EF2944511D1B268019D22EAA2
:100AB0000707B7602268ED432A40226062682A4037
:100AC0006260A2682A40A260E2681540E5600133D6
:100AD00086E70022E5E70122E3E70222E1E70322BD
:100AE000DFE70422DDE70522DBE700BF0004014069
:100AF0000004004800140048001800480369194227
:100B000014BF0120002070470AB1816170478162E3
:100B10007047704708B5044B5969014202D05861CB
:100B2000FFF7F7FF08BD00BF0004014010B5044601
:100B300000284AD090F8413003F0FF021BB980F83A
:100B4000402004F033FB242384F841302368E1681B
:100B50001A6822F001021A60626822F070621A615B
:100B60009A68012922F400429A60A26824D142F4D2
:100B700000429A605A68616942F0007242F4004291
:100B80005A60DA6822F40042DA6022690A43A169F5
:100B900042EA0122DA60216AE2690A431A601A68AD
:100BA00042F001021A6000202023606484F8413082
:100BB000206384F8420010BD42F4044202299A6086
:100BC00004BF4FF400625A60D4E7012010BD90F8D2
:100BD0004120D2B2202A10B51DD190F84030012B0F
:100BE00019D0242380F8413003681C6824F00104E4
:100BF0001C601C6824F480541C601C68214319602C
:100C0000196841F001011960002380F8412080F843
:100C10004030184610BD022010BD10B590F841407C
:100C2000E4B2202C1CD190F84030012B18D02423A2
:100C300080F8413003681A6822F001021A601A68CD
:100C400022F4706242EA012119601A6842F001023E
:100C50001A60002380F8414080F84030184610BDEB
:100C6000022010BD2DE9F04104468AB0002874D05E
:100C700090F8BD3303F0FF021BB980F8BC2304F0E9
:100C80009FFB2546032355F8100B84F8BD3302F073
:100C90008AFA0FCD6E460FC60FCD0FC695E803003A
:100CA00086E8030004F1040898E80E00206802F0CA
:100CB0004BFA0021206802F07CFA002122462346EC
:100CC00004F110050126084683F83C10A3F84210F1
:100CD00001310F2983F83D6083F83F005864986420
:100CE000186503F11C03EFD100231F4682F8FC3185
:100CF00001330F2B82F8FD7182F8FF71C2F8047284
:100D0000C2F80872C2F8107202F11C02EED10FCDC7
:100D10006E460FC60FCD0FC695E8030086E80300A8
:100D200098E80E00206802F085FA012384F83870F4
:100D300084F8BD33636A012B02D1204600F00FF81E
:100D4000A36A012B02D1204600F01CF8206802F0B3
:100D50000DFB00200AB0BDE8F0810120FAE702682F
:100D600003460121C0F8FC13002083F8F4039369C3
:100D700043F000639361536D43F0805343F00303EA
:100D80005365704702680123C0F80034936B43F445
:100D90000033936300207047024A136843F4807362
:100DA0001360704700700040024B186800F4C06088
:100DB000704700BF00700040174B1A68B0F5007F05
:100DC00002F4C0621CD1B2F5007F15D01A6822F47B
:100DD000C06242F400721A60104A116832224A431B
:100DE0000F49B2FBF1F2194601325869400500D5AE
:100DF00022B94B695B050DD400207047013AF4E736
:100E0000B2F5806F1FBF1A6822F4C06242F480629C
:100E10001A60F1E7032070470070004004000020D2
:100E200040420F00024A536843F4806353607047A6
:100E3000007000402DE9F041069D04460F4616461D
:100E4000984621688A683A4214BF01220022B242C1
:100E500002D10020BDE8F0816B1CF3D0FFF7B0FB9E
:100E6000A0EB0800854201D3002DEAD1042384F8C9
:100E70003930E36B43F00103E3630120BDE8F08107
:100E800037B50446FFF79CFB0546002C49D094F883
:100E90003830012B47D0012384F8383094F83920BA
:100EA00002F0FF033AB984F83830204604F0A6F97E
:100EB00041F2883323642068A1680268236C0139F9
:100EC00022F4706242EA0122026020210093002293
:100ED0002B462046FFF7AEFFF0B92268656811681F
:100EE000E36821F07F4143EA056321F010010B43E1
:100EF0001360A169636955680B43216943EA0143A3
:100F00000A4929400B435360136843F001031360FF
:100F10000123E06384F83930002384F8383003B0CB
:100F200030BD0120FBE70220F9E700BFFEF8E0FF3B
:100F300037B51E4DAB6DDA00044618D5FFF734FF08
:100F4000B0F5007F23D1802C29D9A02C8CBF0220A2
:100F50000120174A136823F0070303431360136843
:100F600003F00703181A18BF012003B030BDAB6DA2
:100F700043F08053AB65AB6D03F080530193019B4D
:100F8000FFF712FFAB6D23F08053AB65D8E7802CE1
:100F900007D808D0A4F1700358425841D9E700207F
:100FA000D7E70320D5E70220D3E700BF00100240B7
:100FB00000200240254B9A68D96812F00C0205D037
:100FC0000C2A15D101F00301012918D11968204814
:100FD000090755BFD3F894101968C1F30321C1F371
:100FE000031150F8210082B30C2A09D00020704769
:100FF000042A29D0082A174818BF0020704700206B
:10100000D968DA6801F00301C2F30212022902F181
:10101000010205D0032912D0D968C1F3062103E0EB
:10102000D9680D48C1F30621DB68B0FBF2F0C3F3C9
:101030004163013348435B00B0FBF3F07047D9686C
:101040000448C1F30621EFE703487047001002404F
:10105000C06C000800127A000024F4002DE9F74368
:10106000054618B9012003B0BDE8F083A54C03681C
:10107000A668E768DB0606F00C0607F003073CD518
:101080001EB10C2E63D1012F61D12368980702D5C0
:10109000AB69002BE6D02368286A190756BFD4F83D
:1010A000943023681B0903F0F00383423AD2FFF720
:1010B0003FFF0028D6D1236843F00803236023684C
:1010C0002A6A23F0F003134323606368EA6923F478
:1010D0007F4343EA02236360FFF76CFFA3688A4AF9
:1010E000C3F30313D35C03F01F03D840874B18608E
:1010F000002004F0A9F90028B5D12B68D8075DD4E9
:101100002B68990700F19C802B68180700F1D080AC
:101110002B68590700F1FC80AB6A002B40F0658119
:101120000020A0E7236843F008032360236823F02E
:10113000F003034323606368EA6923F47F4343EACF
:1011400002236360FFF7F4FE0028C5D08AE7AB698D
:101150001BB3236843F001032360FFF731FA804695
:1011600023689A0711D5236843F008032360236896
:101170002A6A23F0F003134323606368EA6923F4C7
:101180007F4343EA02236360B7E7FFF719FAA0EB56
:1011900008000228E4D9032065E7236823F001034F
:1011A0002360FFF70DFA804623689B07A5D5FFF75C
:1011B00007FAA0EB08000228F6D9ECE7082E03D0C6
:1011C0000C2E08D1032F06D123689A0398D56B689B
:1011D000002B95D146E76B68B3F5803F10D12368AB
:1011E00043F480332360FFF7EBF9804623689B03C9
:1011F00086D4FFF7E5F9A0EB08006428F6D9CAE722
:10120000B3F5A02F04D1236843F480232360E6E7DD
:10121000226822F480322260226822F48022226036
:10122000002BE0D1FFF7CCF98046236898037FF5C7
:1012300067AFFFF7C5F9A0EB08006428F5D9AAE766
:10124000042E03D00C2E10D1022F0ED12368590585
:1012500003D5EB68002B3FF405AF63682A6923F0E0
:10126000F85343EA026363604EE7EB687BB123689F
:1012700043F480732360FFF7A3F9074623685A05F8
:10128000EBD4FFF79DF9C01B0228F7D983E7236849
:1012900023F480732360FFF793F9074623685B0507
:1012A0007FF532AFFFF78CF9C01B0228F6D972E741
:1012B0006B699BB1D4F8943043F00103C4F89430C7
:1012C000FFF77EF90746D4F894309A073FF520AF30
:1012D000FFF776F9C01B0228F5D95CE7D4F8943003
:1012E00023F00103C4F89430FFF76AF90746D4F8F5
:1012F00094309B077FF50CAFFFF762F9C01B022803
:10130000F5D948E700100240A76C0008040000204F
:10131000A36DD80029D4A36D43F08053A365A36DBA
:1013200003F080530193019B4FF001085D4F3B6830
:10133000D9051DD5AB68012B2BD1D4F8903043F0E3
:101340000103C4F89030FFF73BF941F288390746B2
:10135000D4F890309B0742D5B8F1000F3FF4DCAED3
:10136000A36D23F08053A365D6E64FF00008DDE7B8
:101370003B6843F480733B60FFF722F981463B688A
:10138000DA05D7D4FFF71CF9A0EB09000228F6D93B
:1013900001E7052B06D1D4F8903043F00403C4F8DC
:1013A0009030CAE7D4F8902022F00102C4F89020CF
:1013B000D4F8902022F00402C4F89020002BC2D16F
:1013C000FFF7FEF841F288390746D4F890309807C5
:1013D000C2D5FFF7F5F8C01B4845F6D9DBE6FFF7A5
:1013E000EFF8C01B4845B3D9D5E60C2E3FF43AAE12
:1013F000022B236823F08073236037D1FFF7E0F8D6
:101400000646236899012BD46A6BEB6A43EA0223F0
:101410002A6B013A43EA0213AA6B120943EA4243D8
:10142000EA6B5208013A43EA42532A6C5208013AE5
:1014300043EA4263E360236843F080732360E36818
:1014400043F08073E360FFF7BBF8054623689A0119
:101450003FF566AEFFF7B4F8401B0228F6D99AE6CE
:10146000FFF7AEF8801B0228CBD994E6236813F06F
:10147000205F02BFE36823F00303E360E36823F027
:10148000887323F48033E360FFF79AF805462368F6
:101490009B017FF545AEFFF793F8401B0228F6D974
:1014A00079E600BF007000402DE9F0410E46044689
:1014B00010B90120BDE8F081404A136803F007032A
:1014C0008B4229D32368D90731D421688A075BD49A
:1014D0003A4A136803F007039E425DD311F0040FEC
:1014E000374D64D10B0706D5AB68226923F46053EE
:1014F00043EAC203AB60FFF75DFDAB68314AC3F35B
:101500000313BDE8F041D35C03F01F03D8402E4B1A
:101510001860002003F098BF136823F007030B4303
:101520001360136803F007039942C2D1CAE76268E7
:10153000234D032A2B681BD113F0007FB9D0AB6871
:1015400023F003031343AB60FFF73AF841F2883806
:101550000746AB68626803F00C03B3EB820FB4D0AC
:10156000FFF72EF8C01B4045F3D90320BDE8F081FA
:10157000022A02D113F4003FE0E712B913F0020F80
:10158000DCE713F4806FD9E70D4AA068936823F075
:10159000F003034393609BE7136823F0070333438F
:1015A0001360136803F007039E4282D196E7AB688D
:1015B000E26823F4E0631343AB6093E7002002404A
:1015C00000100240A76C000804000020014B1868BE
:1015D000704700BF04000020054B064A9B68C3F318
:1015E0000223D35C044A106803F01F03D8407047FD
:1015F00000100240B76C000804000020054B064AAA
:101600009B68C3F3C223D35C044A106803F01F0332
:10161000D840704700100240B76C0008040000205A
:101620000F2303600B4B9A6802F0030242609A6832
:1016300002F0F00282609A6802F4E062C2609B6885
:10164000DB0803F4E0630361034B1B6803F007034B
:101650000B6070470010024000200240F8B5454B77
:10166000DA6812F0030F05460E461C4600682AD0C1
:10167000DA6802F0030282423CD1002A3AD0DB68E9
:101680006A68C3F302130133934233D1236823F012
:1016900080632360FEF794FF074623681A0132D463
:1016A000AF68002E36D0012E50D12269286922F46D
:1016B000C002400822F4FE42013842EA072242EA10
:1016C0004052226132E0022810D0032814D00128B1
:1016D00010D11B689F0738D5E3686A6823F073034D
:1016E000013A184340EA0210E060CFE71B6813F4A8
:1016F000806FF1D10120F8BD1A689103ECD41B680A
:1017000013F4802FF5E7FEF75BFFC01B0228C4D956
:101710000320F8BD2169EB6821F41F3121F44071E9
:1017200041EA07211B0941EA43412161236843F053
:1017300080632360FEF744FF064623681B0113D530
:101740002369AA69134323610020F8BD23696869EE
:1017500023F0C063400823F4FE43013843EA072323
:1017600043EA40632361E1E7FEF72AFF801B02287A
:10177000E3D9CDE700100240F8B53D4BDA6812F02E
:10178000030F05460E461C46006828D0DA6802F0B2
:10179000030282423AD1002A38D0DB686A68C3F378
:1017A00002130133934231D1236823F08053236025
:1017B000FEF706FF074623689A0030D4A868002E7B
:1017C00034D06369296923F0C063490823F4FE43D8
:1017D000013943EA002343EA4163636132E00228AE
:1017E00010D0032814D0012810D11B689F0738D5CA
:1017F000E3686A6823F07303013A184340EA021071
:10180000E060D1E71B6813F4806FF1D10120F8BDCF
:101810001A689103ECD41B6813F4802FF5E7FEF7E8
:10182000CFFEC01B0228C6D90320F8BD6269EB6851
:1018300022F41F3222F4407242EA00221B0942EADB
:1018400043426261236843F080532360FEF7B8FE91
:10185000064623689B0005D563696A691343636183
:101860000020F8BDFEF7ACFE801B0228F1D9DBE7B3
:10187000001002402DE9F347066816F4006604469E
:1018800024D0416EB1F5800F2CD002D8C1B1012611
:101890001CE0B1F5000F0DD0B1F5400FF7D14D4A66
:1018A000616ED2F8883023F440030B43C2F88830CD
:1018B00000260BE0474AD36843F48033D360EEE759
:1018C0000430FFF7CBFE06460028E8D02368D80492
:1018D00006D5A16EB1F1807F74D008D8A9B10126D8
:1018E000354621E000212030FFF746FFEBE7B1F15C
:1018F000007F04D0B1F1407FF1D1354609E0354A8F
:10190000D36843F48033D360F7E7201DFFF7A6FECA
:101910000546002D5CD12F4AA16ED2F8883023F005
:1019200040730B43C2F888302368990340F14F811C
:10193000284FBB6DDA0040F176814FF00008DFF8E8
:101940009890D9F8003043F48073C9F80030FEF75E
:1019500037FE8246D9F80030DB053FD5002D44D153
:10196000D7F8903013F4407315D0D4F88420934204
:1019700011D0D7F89030D7F8902042F48032C7F8D1
:101980009020D7F8902023F4407322F48032C7F8D7
:101990009020C7F89030D80709D5FEF711FE41F224
:1019A00088390546D7F89030990740F10981D7F872
:1019B0009030D4F8842023F440731343C7F8903058
:1019C000354612E0002104F12000FFF7D5FE9FE725
:1019D0002E46A9E70010024000700040FEF7F0FD1F
:1019E000A0EB0A000228B5D90325B8F1000F03D0F7
:1019F000BB6D23F08053BB652368DA0708D5904997
:101A0000A06BD1F8882022F003020243C1F888209D
:101A10009F0708D58A49E06BD1F8882022F00C0294
:101A20000243C1F888205E0708D58549206CD1F8AB
:101A3000882022F030020243C1F88820180708D518
:101A40007F49606CD1F8882022F0C0020243C1F8BF
:101A50008820D90608D57A49A06CD1F8882022F4CC
:101A600040720243C1F888209A0608D57449E06C98
:101A7000D1F8882022F440620243C1F888209F05F3
:101A800008D56F49E06DD1F8882022F44022024346
:101A9000C1F888205E0508D56949206ED1F88820F4
:101AA00022F440120243C1F88820580608D5644940
:101AB000206DD1F8882022F440520243C1F88820DA
:101AC000190608D55E49606DD1F8882022F440429D
:101AD0000243C1F88820DA0508D55949A06DD1F82C
:101AE000882022F440320243C1F888209B040FD59D
:101AF000534AE16ED2F8883023F040630B43B1F1D2
:101B0000006FC2F8883064D1D36843F48013D36087
:101B100023681F030FD54A4A216FD2F8883023F07B
:101B200040630B43B1F1006FC2F888305CD1D368D9
:101B300043F48013D36023685E030FD5404A616F7E
:101B4000D2F8883023F040630B43B1F1006FC2F844
:101B5000883054D1D36843F48013D3602368580489
:101B600012D53749A26FD1F8883023F04053134380
:101B7000B2F1805FC1F888304CD10221201DFFF7FF
:101B80006DFD002818BF05462268110408D52C49B0
:101B9000E06FD1F8883023F080430343C1F88830E8
:101BA000D30309D5264AD4F88010D2F8883023F020
:101BB00000430B43C2F88830284602B0BDE8F087E6
:101BC000FEF7FEFC401B48457FF6ECAE0CE73546C1
:101BD00012E7B1F1806F9BD10121201DFFF73EFD7F
:101BE000002818BF054693E7B1F1806FA3D101210A
:101BF000201DFFF733FD002818BF05469BE7B1F114
:101C0000806FABD10121201DFFF728FD002818BFF0
:101C10000546A3E7B2F1005FB6D1022104F120002E
:101C2000FFF7AAFDADE7BB6D43F08053BB65BB6D0D
:101C300003F080530193019B4FF001087FE600BF42
:101C400000100240024A136843F004031360704717
:101C50000010024003685A6822F0E0025A604268AD
:101C6000B2F5827F0AD18268B2F5004F02D0B2F598
:101C7000806F03D11A6822F040021A60826AB2F5BE
:101C8000005F07D11A6822F400521A601A6842F401
:101C900000521A60012380F85D30002380F85C3028
:101CA0000320704770B504460D46164623689868B1
:101CB00010F0800000D170BD6A1CF8D0FEF780FCE7
:101CC000801B8542F2D82046BDE87040FFF7C2BFB6
:101CD000F8B505460C4616461F4629688868204018
:101CE00000D1F8BDB4F5C06F08BF0B7B731CF5D0F5
:101CF000FEF766FCC01B8642EFD82846BDE8F840D8
:101D0000FFF7A8BF70B513460D4616460A464FF4B6
:101D1000C0510446FFF7DCFF28B1236E43F02003D7
:101D2000236603200FE0324629462046FFF7BAFF1C
:101D30000028F2D133462A464FF4C0612046FFF70F
:101D4000C7FF0028E9D170BDF8B54368B3F5827FBD
:101D500004460E4617460BD18368B3F5004F02D0F8
:101D6000B3F5806F04D123681A6822F040021A602C
:101D70003A4631462046FFF795FF054628B1236EC7
:101D800043F020032366032513E06368B3F5827FE5
:101D90000FD1A368B3F5004F02D0B3F5806F08D11F
:101DA0003B4632464FF4C0612046FFF791FF0028C2
:101DB000E5D12846F8BD70B5044600284AD0002376
:101DC000836290F85D3003F0FF021BB980F85C205D
:101DD00003F03CFA0223216884F85D300B68E26866
:101DE00023F04003B2F5E06F0B604FF000032ED9F3
:101DF0001846B2F5706F18BFA362236B2BB9B2F50A
:101E0000E06F8CBF022301232363A6686368A56982
:101E100033432669334366693343E6693343266AAD
:101E20003343A66A334305F4007633430B60636A99
:101E30001A43636B2D0C1A4305F004052A43024331
:101E4000012300204A60206684F85D3070BD4FF4A5
:101E50008050D0E7012070BD10B5044680B1026803
:101E6000022380F85D30136823F04003136003F011
:101E700013FA0020206684F85C0084F85D0010BD31
:101E8000012010BD2DE9F3411E4690F85C30012B76
:101E900004460D46904600F0B180012380F85C3086
:101EA000FEF78EFB074694F85D00C0B2012840F0B3
:101EB000A380002D5FD0B8F1000F5CD0032384F81D
:101EC0005D300020A36820662064A4F83E80A4F85A
:101ED0004400A4F846002065E0642068A563B3F5DB
:101EE000004F08BF0368A4F83C8004BF43F480435C
:101EF000036003685B065EBF036843F04003036052
:101F0000E368B3F5E06F63683ED913B1B8F1010F30
:101F100007D135F8023BC360A563E38F013B9BB259
:101F2000E387E38F9BB2A3B93A4631462046FFF7D9
:101F3000E9FE00285DD1A36833B901932368DA680C
:101F400001929B680193019B206E003018BF012015
:101F500011E022689368980705D5A36B33F8021B3C
:101F6000D160A363D9E7FEF72BFBC01BB042D8D3E7
:101F7000711CD6D00320012384F85D30002384F83F
:101F80005C3002B0BDE8F08113B1B8F1010F13D19C
:101F9000E38F9BB2012B06D935F8023BC360A563E2
:101FA000E38F023B06E02B780373A36B0133A3633B
:101FB000E38F013B9BB2E387E38F9BB2002BB3D04F
:101FC00023689A6892070CD5E28FA06B92B2012A1F
:101FD00004D930F8022BDA60A063E1E702781A73C3
:101FE000E3E7FEF7EDFAC01B8642E5D8731CE3D0A9
:101FF000C0E7202323669EE70220BCE70220C0E75B
:102000002DE9F8431E4690F85C30089F012B0446EA
:102010000D46914600F01581012380F85C30FEF7F3
:10202000CFFA94F85D306168DBB2012B80460AD0AC
:10203000B1F5827F40F00381A068002840F0FF8066
:10204000042B40F0FC80002D49D0B9F1000F46D0A0
:10205000002E44D094F85D30E2682068C4F84090C7
:10206000042B1CBF052384F85D3000232366B2F5E2
:10207000E06FA4F84660E687E3642365A4F8446053
:10208000A563A687436801D8012E2AD923F480537B
:10209000436003685B065EBF036843F04003036070
:1020A000B2F5E06F56D909B1012E07D135F8023BE0
:1020B000C360E38FA563013B9BB2E3870125E38FF8
:1020C0009BB28BB9B4F846309BB26BB942463946E5
:1020D0002046FFF717FE002834D020232366012076
:1020E00030E043F48053D3E72268936899070DD515
:1020F000E38F9BB253B14DB1A36B33F8021BD16098
:10210000A363E38F013B9BB2E38700259368DB0762
:102110000FD5B4F846309BB25BB1236CD26823F87C
:10212000022B2364B4F84630013B9BB2A4F846303E
:102130000125FEF745FAA0EB08008742BFD87E1CB8
:10214000BDD00320012384F85D30002384F85C3087
:10215000BDE8F88309B1012E0BD1E38F9BB2012BAF
:1021600051D935F8023BC360E38FA563023B9BB2B4
:10217000E3870125E38F9BB223B9B4F846309BB2C5
:10218000002BA3D022689368980711D5E38F9BB2E8
:1021900073B16DB1E38F9BB2012BA36B3BD933F8C5
:1021A000021BD160A363E38F023B9BB2E387002550
:1021B00022689368D9071DD5B4F846309BB2CBB1DD
:1021C000B4F846309BB2012B236C2CD9D16823F88C
:1021D000021B2364B4F84630023B9BB2A4F846309D
:1021E000B4F846309BB2012B03D8536843F48053B4
:1021F00053600125FEF7E4F9A0EB08008742B9D847
:102200007B1CB7D09DE72B780373A36B0133A363CB
:10221000E38F013BABE71B781373A36B0133A3631D
:10222000E38F013BC1E7127B1A70236C01332364F7
:10223000B4F84630013B9BB2A4F84630D9E70220FF
:1022400080E70220BDE8F8832DE9F3411D4643688D
:10225000B3F5827F0446884617460CD1836853B98C
:10226000042380F85D30134600950A46FFF7C8FE48
:1022700002B0BDE8F08194F85C30012B00F08D8055
:10228000012384F85C30FEF79BF9064694F85D0064
:10229000C0B201287FD1B8F1000F6AD0002F68D0FA
:1022A000042384F85D302168E268A4F844700023B8
:1022B0002366A4F84670E387A363A387E3642365DA
:1022C0004B68C4F84080B2F5E06F8CBF23F48053B4
:1022D00043F480534B60A368B3F5004F02BF0B6813
:1022E00023F480430B600B685F065EBF0B6843F00E
:1022F00040030B60B2F5E06F23D9B4F846309BB2CF
:1023000023B323689A68D2073AD5DA68236C23F896
:10231000022B2364B4F84630013B9BB2A4F846304C
:10232000EBE723689A68D0071BD5226C1B7B1370E0
:10233000236C01332364B4F84630013B9BB2A4F80C
:102340004630B4F846309BB2002BEAD132462946DB
:102350002046FFF7F9FCD8B9206E003018BF0120E5
:1023600007E0FEF72DF9801B8542EAD8691CE8D00A
:102370000320012384F85D30002384F85C3077E784
:10238000FEF71EF9801B8542B7D86B1CB5D0EFE76E
:1023900020232366E0E70220EBE7022068E70268DB
:1023A00082B00423906810F4C06001D102B070477D
:1023B000D1680191013B13F0FF030199F2D1032091
:1023C000F4E70000036A23F001030362036A70B5B7
:1023D000446882690D6822F4803222F073022A4335
:1023E0008D6823F002032B431B4DA8420FD005F547
:1023F0000065A8420BD005F54065A84207D005F559
:102400008065A84203D005F58065A8421ED1CD683D
:1024100023F008032B43104DA84223F004030FD0F0
:1024200005F50065A8420BD005F54065A84207D028
:1024300005F58065A84203D005F58065A84205D161
:1024400024F440758E694C6934432C4344608261A6
:102450004A684263036270BD002C0140036A23F4A2
:1024600080730362036A70B54468C2690D6822F420
:10247000803222F073022A438D6823F4007343EA0A
:102480000523164DA84203D005F50065A8420DD1DD
:10249000CD6823F4006343EA0523104DA84223F4DA
:1024A00080630ED005F50065A8420AD00C4DA84205
:1024B00007D005F58065A84203D005F58065A842E0
:1024C00006D124F440558E694C69344345EA04141E
:1024D0004460C2614A68C263036270BD002C01405F
:1024E00000400140036A23F480530362036A30B55D
:1024F0004468C2690D6822F0807222F4E64242EA22
:1025000005228D6823F4005343EA05330E4DA8429B
:102510000FD005F50065A8420BD005F54065A8422F
:1025200007D005F58065A84203D005F58065A8426F
:1025300004D14D6924F4804444EA85144460C261A6
:102540004A680264036230BD002C0140036A23F430
:1025500080330362036A30B54468426D0D6822F42B
:10256000803222F070022A438D6823F4003343EA5C
:1025700005430F4DA8420FD005F50065A8420BD0CA
:1025800005F54065A84207D005F58065A84203D04F
:1025900005F58065A84204D14D6924F4803444EAED
:1025A0000524446042654A688265036230BD00BF0D
:1025B000002C0140036A23F480130362036A30B5E0
:1025C0004468426D0D6822F0807222F4E04242EAD3
:1025D00005228D6823F4001343EA05530E4DA842EB
:1025E0000FD005F50065A8420BD005F54065A8425F
:1025F00007D005F58065A84203D005F58065A8429F
:1026000004D14D6924F4802444EA85244460426561
:102610004A68C265036230BD002C0140704700006B
:1026200003680A48DA6842F00102DA6099680140FA
:10263000062908D09A680240B2F5803F1EBF1A688A
:1026400042F001021A600020704700BF070001003D
:10265000704770477047704703681A69910710B553
:1026600004460FD5DA6892070CD56FF002021A61A2
:102670009B6901229907027700F08580FFF7E9FF47
:102680000023237723681A69520710D5DA685007A8
:102690000DD56FF004021A619B69022213F4407F8A
:1026A0002277204675D0FFF7D4FF002323772368D5
:1026B0001A6911070FD5DA6812070CD56FF00802F6
:1026C0001A61DB6904229B072277204667D0FFF757
:1026D000C0FF0023237723681A69D00610D5DA6873
:1026E000D1060DD56FF010021A61DB69082213F4D0
:1026F000407F2277204658D0FFF7ABFF0023237797
:1027000023681A69D20708D5DA68D00705D56FF0B3
:1027100001021A61204602F0D5FC23681A691106ED
:1027200008D5DA68120605D56FF080021A612046D6
:1027300000F017FA23681A69D00508D5DA6811067F
:1027400005D56FF480721A61204600F00BFA2368F9
:102750001A69520608D5DA68500605D56FF04002AE
:102760001A612046FFF777FF23681A69910622D580
:10277000DA6892061FD56FF0200220461A61BDE884
:10278000104000F0EDB9FFF763FF2046FFF762FF4E
:1027900076E7FFF75DFF2046FFF75CFF85E7FFF771
:1027A00057FF2046FFF756FF93E7FFF751FF2046FC
:1027B000FFF750FFA2E710BD304A0368904212D0E5
:1027C000B0F1804F0FD0A2F5943290420BD002F5B9
:1027D0008062904207D002F58062904203D002F5F9
:1027E0009432904219D14A6823F070031343234A6C
:1027F00090421DD0B0F1804F1AD0A2F59432904291
:1028000016D002F58062904212D002F580629042AA
:102810000ED002F5943290420AD0194A904207D065
:1028200002F58062904203D002F58062904203D1AB
:10283000CA6823F4407313434A6923F080031343A7
:1028400003608B68C3620B6883620C4B98420FD0A5
:1028500003F5006398420BD003F54063984207D01C
:1028600003F58063984203D003F58063984201D159
:102870000B69036301234361704700BF002C0140D3
:102880000040014010B50446A0B190F83D3003F07F
:10289000FF021BB980F83C20FFF7C0FE022384F83A
:1028A0003D302068211DFFF787FF012384F83D306C
:1028B000002010BD012010BD10B50446A0B190F855
:1028C0003D3003F0FF021BB980F83C2002F0FAFC17
:1028D000022384F83D302068211DFFF76DFF01239E
:1028E00084F83D30002010BD012010BD036A23F0A4
:1028F00010030362036A70B5446882690D6822F0B0
:10290000807222F4E64242EA05228D6823F0200319
:1029100043EA0513164DA84203D005F50065A84209
:102920000DD1CD6823F0800343EA0513104DA84272
:1029300023F040030ED005F50065A8420AD00D4DE6
:10294000A84207D005F58065A84203D005F580654B
:10295000A84206D124F440658E694C69344345EAA7
:102960008404446082614A688263036270BD00BF70
:10297000002C01400040014038B590F83C30012B5C
:1029800004464FF0020010D00123082A84F83C309E
:1029900084F83D0043D009D8FAB1042A2ED001238F
:1029A000002084F83D3084F83C0038BD102A47D020
:1029B000142A56D00C2AF2D12068FFF793FD236821
:1029C0000969DA6942F40062DA61DA6922F4806244
:1029D000DA61DA6942EA012230E02068FFF7F2FCAE
:1029E000236809699A6942F008029A619A6922F09B
:1029F00004029A619A690A439A61D0E72068FFF756
:102A000075FF236809699A6942F400629A619A69BC
:102A100022F480629A619A6942EA0122ECE7206816
:102A2000FFF71CFD23680969DA6942F00802DA61E0
:102A3000DA6922F00402DA61DA690A43DA61AEE7A0
:102A40002068FFF783FD236809695A6D42F0080288
:102A50005A655A6D22F004025A655A6D0A435A6546
:102A60009DE72068FFF7A6FD236809695A6D42F4C7
:102A700000625A655A6D22F480625A655A6D42EAC4
:102A80000122ECE7036A01F01F0110B501248C401C
:102A900023EA04030362036A8A401A43026210BDF8
:102AA00010B5044601220068FFF7ECFF2368144AC2
:102AB00093421FD002F5006293421BD002F54062A0
:102AC000934217D002F58062934213D002F58062E0
:102AD00093420FD099680B480140062908D09A68A4
:102AE0000240B2F5803F03D01A6842F001021A603A
:102AF000002010BD5A6C42F400425A64EAE700BF5D
:102B0000002C01400700010090F83C30012B30B54B
:102B10004FF002031FD00268104D80F83D30AA42EA
:102B20005368946803D005F50065AA4203D14D6847
:102B300023F470032B430D68896823F070032B4343
:102B400024F08004536021430123916080F83D30DC
:102B5000002380F83C30184630BD00BF002C0140F7
:102B600070477047704700000268C169F8B50446B5
:102B7000836800691568034360690343BA480B43DF
:102B80002840034313605368E06823F44053034331
:102B90005360B64BA0699A421CBF236A18439368DE
:102BA00023F4306303439360B14B9A4219D103F588
:102BB0005843B04AD3F8883003F00303B1F5004F0F
:102BC000D35C40F03881082B00F28F80DFE813F0EF
:102BD0001A01CA00F9008D0014018D008D008D00CE
:102BE0003600A54B9A4207D103F5E633A34AD3F842
:102BF000883003F00C03E1E7A14B9A4223D103F59F
:102C0000E433D3F8883003F03003102B00F0F18068
:102C10000BD8002B00F0F380B1F5004F4FF001020C
:102C20004FF0000300F0F880A8E0202B00F0C680F1
:102C3000302BF1D1B1F5004F40F0B8806068430807
:102C400003F58033C3E08F4B9A421ED103F5E23384
:102C5000D3F8883003F0C003402B00F0BB800AD8C3
:102C60007BB9824B9A4240F0CA80FEF7B5FC002344
:102C7000B0BB02463AE0802B00F09D80C02B00F0F4
:102C8000B0807A4B9A42C7D12FE07F4B9A4211D144
:102C900003F5E033D3F8883003F44073B3F5807F55
:102CA00000F09880DCD9B3F5007F00F08480B3F5A4
:102CB000407FE4E76D4B9A42AED103F5C833D3F8B9
:102CC000883003F44063B3F5806F00F08380C7D988
:102CD000B3F5006F6FD0B3F5406FD0E76B480223B8
:102CE000626802EB4201814205D90122002323667A
:102CF00063661046F8BDB0EB023FF6D8082B2ED81D
:102D0000DFE803F0052D1C2D242D2D2D2700FEF7C7
:102D100063FC62684FF4807156080027E1FB00678E
:102D2000002330463946FDF7ABFA0022584BA0F598
:102D300040719942D9D82368D860D7E755485508DB
:102D400000230021401941F10001ECE7FEF732F9C0
:102D5000DFE750080021002310F50000F3E701220F
:102D60000020E3E7FEF74AFC4EE0FEF735FC626820
:102D700000EB5203B3FBF2F39BB20022A3F110006D
:102D80004FF6EF718842B0D82168CB60AEE7FEF70E
:102D900035FCECE76068430803F5740303F5105352
:102DA000B3FBF0F3E8E7FEF705F9E0E760684308F6
:102DB00003F50043F4E72D4B9A428FD0B1F5004F55
:102DC000E8D16068430803F1F47303F59043B3FB63
:102DD000F0F31FE0254B9A420BD1FEF7EBF80423EA
:102DE00046E7224B9A427FF425AF4FF40040082378
:102DF00076E7B1F5004FD6D1FEF7DCF804E0B1F587
:102E0000004FB2D1FEF7E8FB61684A0802EB4003CD
:102E1000B3FBF1F39BB20022A3F110004FF6EF7168
:102E200088423FF662AF23F00F012068C3F34203EC
:102E30000B43C3605AE7082B3FF657AF01A252F885
:102E400023F000BF6B2D00088F2D0008952D000882
:102E5000EB2C0008A72D0008EB2C0008EB2C000839
:102E6000EB2C0008AD2D0008F369FFEF0080004057
:102E700000380140306B000800440040346B00080B
:102E800000480040004C0040005000400024F40086
:102E9000FFFC0F00000024F4436ADA0710B506D5E2
:102EA0000168846A4A6822F4003222434A609C071F
:102EB00006D50168C46A4A6822F4803222434A6017
:102EC000590706D50168046B4A6822F48022224320
:102ED0004A601A0706D50168446B4A6822F400422A
:102EE00022434A60DC0606D50168846B8A6822F4B6
:102EF000805222438A60990606D50168C46B8A68AD
:102F000022F4005222438A605A060FD50168046CED
:102F10004A6822F480122243B4F5801F4A6005D12A
:102F20004A68446C22F4C00222434A601B0606D55C
:102F30000268816C536823F400230B43536010BD77
:102F40002DE9F041069D04460F4616469846216835
:102F5000CA6937EA02030CBF01220022B24202D042
:102F60000020BDE8F0816B1CF2D09DB923681A687F
:102F700022F4D0721A609A6822F001029A6020232B
:102F800084F8713084F87230002384F870300320A4
:102F9000BDE8F081FDF714FBA0EB08008542D6D216
:102FA000E4E72DE9F3411F4690F87130202B0446E9
:102FB0000D4690464AD1002946D0002A44D090F8C8
:102FC0007030012B42D0012380F87030002343671A
:102FD000212380F87130FDF7F3FAA4F850800646FB
:102FE000A4F85280B4F85220009792B2334652B9F6
:102FF00040212046FFF7A4FF58B9202384F8713000
:1030000084F8700006E0002280212046FFF798FF38
:1030100018B1032002B0BDE8F081A3682268B3F5BF
:10302000805F0DD123695BB935F8023BC3F3080318
:103030001385B4F85230013B9BB2A4F85230D1E76B
:103040002B7813850135F4E70120E3E70220E1E75F
:1030500073B5044600264667FDF7B2FA23681B687D
:103060001A07054617D423681B685B070AD56FF05B
:103070007E43009300222B464FF480012046FFF749
:103080005FFFA0B92023002084F8713084F870001D
:1030900084F872300CE06FF07E43009332460346B2
:1030A0004FF400112046FFF74BFF0028DBD0032030
:1030B00002B070BD10B5044660B390F8713003F0F3
:1030C000FF021BB980F8702002F034F92268242333
:1030D00084F87130136823F0010313602046FFF772
:1030E00043FD012816D0636A13B12046FFF7D4FED2
:1030F00023685A6822F490425A609A6822F02A02A1
:103100009A601A6842F0010220461A60BDE8104039
:10311000FFF79EBF012010BD0A4B013B01D10320E8
:1031200070470269002AF8DA0369064A43F001038E
:103130000361013AF3D0036913F00103F9D1184692
:10314000704700BF410D030084B038B505AD85E878
:103150000E000A9B012B04461BD1836B23F48033A2
:103160008363C36823F4840323F04003C360C3680C
:1031700023F44013C360119B012B02BFC36843F4C7
:103180008013C360FFF7C8FFBDE83840002004B0DB
:103190007047C36843F04003C360FFF7BDFF4FF4BF
:1031A0008033A363F0E7836823F00103836000208A
:1031B000704708B5C368012923F0C043C36008D134
:1031C000C36843F00053C3603220FDF7FFF90020CD
:1031D00008BD19B9C36843F08043F4E7012008BD76
:1031E000890141F02001064A0161013A05D00369D5
:1031F00013F02003F9D1184670470320704700BF31
:10320000410D03001023064A0361013A05D003690A
:1032100013F01003F9D1184670470320704700BF20
:10322000410D0300D0F800381943C0F80018002001
:103230007047000084B02DE9F041044607A880E8FB
:103240000E000023119F8846194603F1400204EB4B
:10325000820201330F2B5160F7D1A36B43F40013AB
:10326000A3635FB9A36B23F40013A363236843F044
:1032700040032360236843F0800323600025C4F8E3
:10328000005ED4F80038C4F8003803212046FFF768
:10329000C9FF04F5006610212046FFF7A1FF204674
:1032A000FFF7B0FF35612B4675612946F56104F5DE
:1032B00010624FF090404FF000654FF67F3E43455F
:1032C0002FD1002104F5306208464FF090454FF0B1
:1032D000006E4FF67F3C8B4234D1336923F4807308
:1032E00033610023A3616FF080436361A36943F0FE
:1032F0001003A361A2691C4B1343A3610D9B1BB177
:10330000A36943F00803A361012F01BFA36943F040
:10331000804343F00403A361BDE8F041002004B002
:103320007047D2F800C0BCF1000F09DA33B915605C
:1033300011610133C2F808E02032C0E71060F7E7FE
:103340001160F5E7D2F80080B8F1000F0ADA39B958
:10335000C2F800E010610131C2F808C02032BAE7BB
:103360001560F7E71060F5E700383C8008B5D0F845
:10337000043843F00203C0F804380320FDF726F9AF
:10338000002008BD08B500F03BFC002008BD30B5AA
:10339000B0F90840028A0B4690E8220085B0842CE0
:1033A00014BF0334002403A801900094284600F0C1
:1033B00057FB01280CBF0398002005B030BD08B5AD
:1033C000002808BF012000F069FD002008BD08B5F5
:1033D00000F0C2FD012803D0BDE8084000F012B99A
:1033E00008BD00F1080343604FF0FF32C360036182
:1033F00000238260036070470023036170474368C5
:103400004B609A688A609A685160996003680861A5
:103410000133036070470A68531C30B50AD1036951
:103420005A684A6091608B60596003680861013393
:10343000036030BD00F108035C682568AA42EFD341
:103440002346F9E74168826803698A6082685160AF
:103450005968884208BF5A60002202611A68013A1E
:103460001A6018687047000082B0002301930D4B6A
:103470001B68013308D04FF0500383F31188BFF36A
:103480006F8FBFF34F8FFEE74FF0500383F3118828
:10349000BFF36F8FBFF34F8F019B002BFCD002B0A7
:1034A000704700BF0000002008480068006880F3F3
:1034B00008884FF0000080F3148862B661B6BFF34D
:1034C0004F8FBFF36F8F00DF00BF000008ED00E0FB
:1034D000DFF80C00016841F47001016070470000E2
:1034E00088ED00E04FF0807340F8043C074B40F853
:1034F0000C3C21F001016FF0020340F8081C40F879
:10350000202C40F8243C4438704700BF6934000840
:10351000074B19680868B0E8F04F80F30988BFF3DB
:103520006F8F4FF0000080F311887047AFF3008079
:10353000840C00204FF0500383F31188BFF36F8F8A
:10354000BFF34F8F0A4A13680133012B13600DD16B
:10355000084B1B6813F0FF0F08D04FF0500383F3A4
:103560001188BFF36F8FBFF34F8FFEE7704700BF27
:103570000000002004ED00E0084A136843B94FF052
:10358000500383F31188BFF36F8FBFF34F8FFEE7B4
:10359000013B13600BB983F31188704700000020D2
:1035A000EFF30980BFF36F8F154B1A681EF0100FF1
:1035B00008BF20ED108A20E9F04F10602DE90900C6
:1035C0004FF0500080F31188BFF34F8FBFF36F8F20
:1035D00000F088FC4FF0000080F3118809BC1968E6
:1035E0000868B0E8F04F1EF0100F08BFB0EC108A6A
:1035F00080F30988BFF36F8F704700BFAFF300807F
:10360000840C002008B54FF0500383F31188BFF3FA
:103610006F8FBFF34F8F00F037FB18B1034B4FF0A4
:1036200080521A60002383F3118808BD04ED00E086
:10363000084A0949002313600B60084B4FF47A7164
:103640001B68B3FBF1F30649013B0B6007231360D2
:10365000704700BF10E000E018E000E00400002028
:1036600014E000E0394B3A4A13B51968914208D189
:103670004FF0500383F31188BFF36F8FBFF34F8F69
:10368000FEE71A68334B9A4208D14FF0500383F398
:103690001188BFF36F8FBFF34F8FFEE72E4B1A7861
:1036A000D2B20192FF221A701B782C4ADBB28DF83D
:1036B00003309DF8033003F050031370284B0722AA
:1036C0001A6000219DF80300000602F1FF340DD4BA
:1036D00001B11A601A68032A11D04FF0500383F326
:1036E0001188BFF36F8FBFF34F8FFEE79DF8032064
:1036F0005200D2B28DF8032001212246E2E71202E5
:1037000002F4E0621A60019B134ADBB21370154B9E
:103710001A6842F470021A601A6842F070421A6025
:10372000FFF786FF104B00241C60FFF7D1FE0F4A05
:10373000136843F040431360FFF7B6FE00F0D2FB7E
:10374000FFF792FE204602B010BD00BF00ED00E082
:1037500071C20F4170C20F4100E400E0AC000020D4
:10376000B000002020ED00E00000002034EF00E079
:1037700010B50F4B1A68824218D35C681919884239
:1037800001BF4168184609195960446801198A4205
:1037900007D1084909688A421FBF51681268091990
:1037A00041609842026018BF186010BD1346E1E7FF
:1037B0007C0C0020B40000202DE9F041044600F00C
:1037C0005BFA3E493E4D0B680BBB3E4A56071FBF96
:1037D000D01D20F0070002F6B8331B1A14BF0246B2
:1037E00040F6B8331344083B23F00703364E0B6012
:1037F00000207060326058601860981A1360334B74
:1038000050601860324B18604FF000432B602F68F7
:10381000274216D1002C41D004F1080358071CBFE1
:1038200023F00703083363B1294A1668B342904670
:1038300007D8254A15686868834204D809688D420C
:1038400007D100242AE02C68002CF7D02A46254610
:10385000F1E7296814681160C21A102A0FD9E81814
:10386000410708D04FF0500383F31188BFF36F8FE7
:10387000BFF34F8FFEE742606B60FFF779FF13499C
:103880006B680868F61A1F4386424FF00003C8F8B9
:10389000006038BF0E6008346F602B6000F086FA5D
:1038A000630708D04FF0500383F31188BFF36F8F85
:1038B000BFF34F8FFEE72046BDE8F081B400002043
:1038C000700C0020B80000207C0C0020780C002038
:1038D000740C002010B5044670B3184A50F8043C2C
:1038E0001268134208D14FF0500383F31188BFF3DD
:1038F0006F8FBFF34F8FFEE750F8081C41B14FF0B8
:10390000500383F31188BFF36F8FBFF34F8FFEE730
:1039100023EA020340F8043C00F0AEF9084A54F8E8
:10392000043C1168A4F108000B441360FFF720FF6A
:10393000BDE8104000F03ABA10BD00BF700C002086
:10394000740C0020064A13681968064B19B94FF029
:10395000FF321A6070471268D268D2685268F8E77E
:10396000880C0020600D0020F8B51B4B1B4E1D6815
:103970000446306804300F46FFF764FD334640B913
:103980003168174EC96A32680120884022EA000275
:103990003260621C07D137B1196812480431BDE8A2
:1039A000F840FFF72CBD2C441A68A542546007D993
:1039B0000D4A10681968BDE8F8400431FFF72BBDC7
:1039C0000A4A106819680431FFF725FD084B1A6888
:1039D000944238BF1C60F8BDA80D0020840C002064
:1039E000300D0020800D00208C0C0020880C002061
:1039F000600D002080B5DFF86480144F144C154E24
:103A0000236863B9144B1B68012BF8D94FF080531E
:103A1000C8F80030BFF34F8FBFF36F8FEEE7FFF7AB
:103A200089FDFB68DD68281DFFF70CFD3368013B4D
:103A300033602368013B2360FFF79EFD286BFFF78F
:103A400049FF2846FFF746FFDAE700BF940D002044
:103A5000200D00201C0D0020900C002004ED00E043
:103A60002DE9F84F4FEA820A804650460F469946A4
:103A70000B9EFFF7A1FE0546002800F0968054201B
:103A8000FFF79AFE0446002800F08C80AAF1040A91
:103A9000056355447B1E25F0070A00F134020F37F9
:103AA000597802F8011B13F8011F09B1BB42F7D185
:103AB0000A9D062D28BF06254FF0000B271DE56245
:103AC0006564384684F843B0C4F848B0FFF794FC06
:103AD000C5F1070504F11800FFF78EFCC4F84CB0DF
:103AE0002461A561646284F850B04A46414650465C
:103AF000FFF7F8FC206006B13460FFF71BFD324B86
:103B0000324E1A68DFF8F08001321A603568002DF5
:103B10004ED134601B68012B1DD108EB0500143514
:103B2000FFF75FFC8C2DF8D1DFF8D090284D484688
:103B3000FFF757FC2846FFF754FC2648FFF751FCD7
:103B40002548FFF74EFC2548FFF74BFC244BC3F8F4
:103B50000090244B1D60244A2449136808680133EF
:103B60001360E26A012505FA02F3034314200B6097
:103B700000FB02803946FFF742FCFFF7FDFC1C4BBF
:103B80001B6863B13368DA6AE36A9A4207D2194B59
:103B90004FF080521A60BFF34F8FBFF36F8F2846EC
:103BA000BDE8F88F2846FFF795FE4FF0FF35F6E7A2
:103BB0000F4B1B68002BCED13368DA6AE36A9A4256
:103BC00098BF3460C7E700BF1C0D0020840C0020A4
:103BD000480D0020680D0020940D0020800D00206D
:103BE000880C00208C0C00202C0D0020300D0020B3
:103BF0007C0D002004ED00E0900C0020340D00202E
:103C000013B5174B019300240094234680221549D5
:103C10001548FFF725FF012814D14FF0500383F317
:103C20001188BFF36F8FBFF34F8F104B4FF0FF32F0
:103C30001A600F4B18600F4B1C6002B0BDE81040BB
:103C4000FFF710BD013008D14FF0500383F3118806
:103C5000BFF36F8FBFF34F8FFEE702B010BD00BF01
:103C60005C0D0020416B0008F5390008600D002054
:103C70007C0D0020A80D0020024A13680133136058
:103C8000704700BF280D00202DE9F84F3C4B1B6802
:103C9000002B53D13B4B1C6801341C60BCB93A4B20
:103CA0001A68126842B14FF0500383F31188BFF3D2
:103CB0006F8FBFF34F8FFEE7344A196810681860A2
:103CC0001160334A136801331360FFF73BFE314D37
:103CD000314F2B689C424FF0000B3ED3DFF8A88099
:103CE000DFF8C490D8F80020126872BB4FF0FF32A2
:103CF0002A6032E006F1040A5046FFF7A3FBB16ADE
:103D000019B106F11800FFF79DFBF06AD9F80030F1
:103D1000012202FA00F11943204BC9F800104FF0BC
:103D2000140E51460EFB0030FFF769FB3868F16A4C
:103D3000C26A914228BF4FF0010BD3E7184A1368BB
:103D4000013313604FF0000B11E0D8F80020D26867
:103D5000D66871688C42CDD229603A680F4BD16A1F
:103D600014224A439A58022A28BF4FF0010B0D4AE9
:103D70001268002A18BF4FF0010B5846BDE8F88FB3
:103D8000280D0020A80D0020880C00208C0C00209D
:103D9000640D0020600D0020840C0020900C002099
:103DA000240D0020AC0D0020300D00202DE9F8433B
:103DB000314C236843B94FF0500383F31188BFF3AC
:103DC0006F8FBFF34F8FFEE7FFF7B4FB2368013B14
:103DD000236024682CB10024FFF7CEFB2046BDE809
:103DE000F883264B1B68002BF5D0DFF8A890244FF2
:103DF000DFF8A480D9F80030E3B90CB1FFF7A2FDD9
:103E0000204D2C6844B1204E0127FFF73DFF00B143
:103E10003760013CF9D12C601B4B1B68002BDAD0BA
:103E20001A4B4FF080521A60BFF34F8FBFF36F8F62
:103E30000124D1E7D9F80C30DC68261D04F1180004
:103E4000FFF700FB3046FFF7FDFAE26A396801250B
:103E500005FA02F314200B4300FB028031463B605D
:103E6000FFF7CDFA0A4BE26A1B68DB6A9A4224BF6D
:103E7000054B1D60BEE700BF280D00201C0D002073
:103E8000300D0020240D0020AC0D002004ED00E0DA
:103E9000840C0020680D0020900C002008B540B96B
:103EA0000E4B4FF080521A60BFF34F8FBFF36F8FEE
:103EB00008BD0B4B196841B14FF0500383F31188D3
:103EC000BFF36F8FBFF34F8FFEE7FFF7D5FEFFF70E
:103ED0004BFDFFF76BFF0028E2D008BD04ED00E0CA
:103EE000280D0020174B1A68174B10B512B101228C
:103EF0001A6010BD1A60154B1B68B3FA83F3DBB26E
:103F0000C3F11F03142212495A4388188C5844B92C
:103F10004FF0500383F31188BFF36F8FBFF34F8FC0
:103F2000FEE744680832646844600A44944204BF6F
:103F300062684260142202FB03135B68DA68054B77
:103F4000D6E700BF280D0020AC0D0020300D00206A
:103F5000900C0020840C0020054B1B6833B1054BEE
:103F60001B68002B0CBF0220002070470120704707
:103F70007C0D0020280D0020F0B503782D2B06BF06
:103F8000013001250025431E2A4600200A2713F888
:103F9000014F303CE6B2092E04D901B10A7005B1D7
:103FA0004042F0BD013207FB0040D2B2EFE72DE9FD
:103FB000F34104460F4600254FF00108237813B95A
:103FC00002B0BDE8F0812E2B8DF8078008D00DF1EE
:103FD00007012046FFF7D0FF6E1CF6B27855354634
:103FE0009DF807301C44E9E770B5044608460E46C4
:103FF0001546FCF7EDF8D4F80C31D4F8542781B20B
:1040000030469847002814DDD4F81031D4F85427EE
:1040100000212846984700280BDD00242C5408492D
:10402000284601F046FC30B90649284601F041FC1B
:1040300018B9042070BD204670BD022070BD00BFBD
:10404000466B00084F6B00082DE9F8434FF6FF73ED
:10405000C0F85437D0F800310446984700284AD1B8
:1040600004F58A7225492046FFF7BEFF054660B970
:104070002349244FDFF8889004F58B7001F034FC5D
:104080002E4604F15408F3B210B92846BDE8F8836F
:10409000062B23D8DFE803F0040A0F14191E2800AA
:1040A00001462022204601F0EFFB17E001461022D6
:1040B00004F12000F7E70146102204F13000F2E796
:1040C0000146102204F14000EDE70146042204F10C
:1040D0005000E8E70021FFF74FFF606749460020E6
:1040E00001F002FC0136CEE7394601F0FDFB20224B
:1040F00001464046D7E70225C7E700BF746B0008BA
:10410000796B00086E6B000830B5039D049C68B1A4
:1041100061B15AB155B14CB1C0F80011C0F80C51A1
:10412000C0F81041C0F80831002030BD022030BD79
:10413000F8B500F58A740546174620460A46184920
:104140001E4601F075FB224621462846FFF74CFF2C
:1041500020BB3A461349204601F06AFB224621461D
:104160002846FFF741FFC8B932460F4985F8786005
:10417000204601F05DFB224621462846FFF734FF2A
:1041800060B90A49204601F077FB224621462846BD
:10419000FFF72AFF10B9012385F8BE30F8BD00BF34
:1041A000576B00085E6B0008656B00086C6B0008BD
:1041B00000F58A722DE9F04737490446104601F0B0
:1041C0005BFB024601462046FFF70EFF064660B93C
:1041D0003249DFF8C89004F58B7001F085FB04F1DB
:1041E0007907B24604F1D10810B93046BDE8F0872E
:1041F0000AF10105EDB2BAF10B0F0CD8DFE80AF0B5
:1042000006191E242A3035383B3E404601462122FD
:10421000384601F039FB4946002001F065FB30B11A
:1042200010F8013C2C2B04BF0AF10205EDB2AA469E
:10423000DAE70146212204F19A00EAE70021FFF7BC
:104240009BFE84F8BB00E6E70021FFF795FE84F8AB
:10425000BC00E0E70021FFF78FFE84F8C000DAE73A
:1042600004F1C101FFF7A3FED5E704F1C501F9E7A9
:1042700004F1C901F6E704F1CD01F3E74146F1E7A6
:104280000021FFF779FE84F8BD00C4E70021FFF7A5
:1042900073FE84F8BF00BEE7706B0008796B0008FE
:1042A00073B500F58A744A7806460D4620462849BB
:1042B00001F0BEFA224621463046FFF795FE00285F
:1042C00044D12A782349204601F0B2FA22462146F9
:1042D0003046FFF789FE002838D12B78012B26D0F5
:1042E0006A881D49204601F0A3FA2246214630463D
:1042F000FFF77AFE50BB697A0191297AAA79009179
:10430000EB791649204601F093FA224621463046C1
:10431000FFF76AFED0B91249204601F0ADFA2246F5
:104320002146304602B0BDE87040FFF75DBEAB8865
:10433000002BD5D06A880B49204601F079FA224635
:1043400021463046FFF750FE0228C9D102B070BDA9
:104350008F6B0008966B00089D6B0008AB6B000824
:10436000BB6B0008A46B00082DE9F047B3F5966F0E
:10437000054617469946DDF8208000F2908000F54A
:104380008A740A462046474901F052FA22462146DD
:104390002846FFF729FE0646824648BB4A46424960
:1043A000204601F045FA224621462846FFF71CFE2A
:1043B0000646002870D1099A3C49204601F038FA97
:1043C000224621462846FFF70FFE064680B93849A7
:1043D000204601F051FA2046FBF7FAFED5F80C31E1
:1043E000D5F8542781B220469847002803DC0426DC
:1043F0003046BDE8F087D5F81031D5F854270221B2
:10440000204698470228F2D1B9F1080FD5F81031AB
:1044100019D809F10801D5F8542789B220469847E0
:1044200080B20728E3D9A0F108052249601901F0FC
:1044300040FA0028DBD0AAB2A8F80020214638466E
:1044400001F066F9D4E7D5F854274946384698472D
:1044500080B20728CBD9A0F108094F441549384646
:1044600001F027FA10B1A8F80090C1E73B68C5F841
:1044700014317B686360D5F81031D5F854270821D2
:1044800005F58E70984785B20A49601901F011FA56
:104490000028ACD0A944E6E7A8F800A0A8E70226C7
:1044A000A6E700BF8F6B00087B6B0008826B0008DB
:1044B0008A6B0008466B0008444B2DE9F0419A6D69
:1044C000434E444F42F400429A659A6D8AB002F41A
:1044D00000420192019ADA6C42F00202DA64DA6C6C
:1044E00002F002020292029ADA6C42F00402DA64EA
:1044F000DA6C02F004020392039ADA6C42F01002C2
:10450000DA64DB6C03F010030022049330464FF4AE
:10451000005101240025049BFCF7F6FA4FF40053E8
:1045200005A9304605930226069407950895FCF7E1
:104530006FF9294B069305A9384605960795089506
:10454000FCF766F94FF4807305A938460593069485
:10455000079508950995FCF75BF9224621463846F0
:10456000FCF7D2FA05A93846A7F500674FF0060810
:104570000594069407950894FCF74AF94FF4806374
:1045800005A938460593069607950894CDF824802A
:10459000FCF73EF94FF4805305A93846059306967B
:1045A00007950894CDF82480FCF732F94FF40063A6
:1045B00005A938460593069607940894CDF82480FB
:1045C000FCF726F90AB0BDE8F08100BF00100240F8
:1045D000000400480010004800001110F7B5FBF778
:1045E000EFFF414C414B236006462046FFF764FF36
:1045F0004FF470624FF48273E2604FF400726360B4
:10460000A261002310222046A36023616361E2615E
:1046100023626362A362E362FDF7CDFB05460028D7
:104620005CD102464FF480713148FCF76DFA0A20E4
:10463000FBF7CCFF01224FF480712D48FCF764FAA0
:104640004FF4FA70FBF7C2FF29482A460121FCF714
:104650005BFA0A20FBF7BAFF02212548FCF74EFA65
:104660000128024622D09DF80030152B2ED19DF84E
:104670000130152B2AD19DF802300D2B26D19DF843
:1046800003400A2C22D19DF804303E2B1ED19DF808
:104690000530202B1AD1012211461548FCF734FAB7
:1046A0002046FBF793FF002003B0F0BD0DEB0501A2
:1046B0004FF6FF732046FDF7C7FD0746FBF780FF67
:1046C000801B0235B0F5803FEDB20AD301220848C5
:1046D0001146FCF719FA0A20FBF778FF4FF0FF307C
:1046E000E2E7002FB8D0F1E7CC0D0020003C0040FD
:1046F0000010004808B50248FDF7AEFB002008BDD9
:10470000CC0D00202DE9F74F8A4616468046FBF770
:1047100057FF81463748384CFDF741FE01221146CC
:104720003548FCF7F1F90A20FBF750FF022120463B
:10473000FCF7E4F90128014641D100222E482E4F12
:10474000FCF7E2F90A20FBF741FF44460221384614
:10475000FCF7D4F9A4EB0805ADB201280FFA85FBEC
:1047600021D1D34502DBBAF1000F1CD1334601221F
:1047700001A92048FDF768FD9DF80530152B02D1F1
:104780000120FBF723FF02213846FCF7B7F99DF81B
:1047900004209DF805302270012819D0152B17D15F
:1047A00001350FFA85FB012213481146FCF7ACF9DD
:1047B0000A20FBF70BFF584603B0BDE8F08FFBF76C
:1047C000FFFEA0EB0900B042B0D94FF0FF3BF2E78B
:1047D0006370FBF7F5FEA0EB0900864204F10204CA
:1047E000B4D2012211460448FCF78EF90A20FBF7E7
:1047F000EDFEEAE7CC0D0020001000482DE9F34162
:1048000005460C461646FBF7DBFE1F4F804602218D
:104810003846FCF773F90128014622D100221A48D4
:10482000FCF772F90A20FBF7D1FE012C06D93346BA
:10483000620829461548FDF725FBC0B9E3070ED5E8
:104840002544012215F8013C8DF804300A238DF827
:10485000053001A933460D48FDF714FB38B920B2E5
:104860000FE0FBF7ADFEA0EB0800B042CFD901226C
:1048700011460548FCF748F90A20FBF7A7FE4FF060
:10488000FF3002B0BDE8F08100100048CC0D0020E0
:10489000FBF79CBEF0B5B9B0FCF77EFA2F4AD2F810
:1048A000903023F01803C2F89030142305930023AE
:1048B0000C936023012402250D930727282305A8C4
:1048C00007940B940F9510941194129313971495C9
:1048D0001595FCF7C3FB00B1FEE70F2603230290FA
:1048E000039004900421684600960193FCF7DCFDD8
:1048F00000B1FEE71A4B16934FF0806331931823F3
:10490000249026902B903690199316A84FF480137C
:10491000179418941A971B951C951D93FCF7AAFFE2
:1049200000B1FEE74FF40070FCF746FA044600B110
:10493000FEE7FCF74BFE4FF47A73B0FBF3F0FBF7A6
:10494000A5FE0420FBF7B8FEFDF77CF922463146B0
:104950004FF0FF30FBF75AFE39B0F0BD00100240B7
:10496000852001002DE9804891B0FBF711FEFFF78B
:1049700091FFA94BA948DA6CDFF8C48242F010021B
:10498000DA64DA6C02F010020192019ADA6C42F0F9
:104990000402DA64DA6C02F004020292029ADA6C1F
:1049A00042F00102DA64DA6C02F001020392039A27
:1049B000DA6C42F00202DA64DA6C02F0020204926B
:1049C000049ADA6C42F00802DA64DB6C03F0080344
:1049D0000593002240F21511059BFCF795F8002283
:1049E00048F258114FF09040FCF78EF800224FF239
:1049F00034018B48FCF788F8002243F28101894892
:104A0000FCF782F800224FF4107187480024FCF76D
:104A10007BF84FF0010A40F2151309A97F4809936A
:104A2000CDF828A00B940C94FBF7F2FE6A2309A999
:104A30007A480993CDF828800B94FBF7E9FE4FF4F0
:104A40000053099309A9794B77480A934FF00B0952
:104A50000B94FBF7DDFE3F2309A973480993022558
:104A60000327CDF8289008260B94FBF7D1FE09A95F
:104A70004FF090404FF0040B09970C970A950B9458
:104A80000D96FBF7C5FE09A94FF09040CDF824B074
:104A90000A950B940C94CDF834A0FBF7B9FE48F2BC
:104AA000581309A94FF090400993CDF828A00B9412
:104AB0000C94FBF7ADFE09A95948CDF8289009954B
:104AC0000B94FBF7A5FE4FF2340309A95448099350
:104AD000CDF828A00B940C94FBF79AFE4CF60443F7
:104AE00009A950480993CDF828800B94FBF790FE54
:104AF00043F2810309A94B480993CDF828A00B94F0
:104B00000C94FBF785FE4FF4107309A946480993EE
:104B1000CDF828A00B940C94FBF77AFE4FF4C073E9
:104B200009A941480993CDF828800B944FF0050856
:104B3000FBF76EFE09A93B480C9709950A950B9463
:104B4000CDF83480FBF764FE0723782209A93548A5
:104B50000D9309920C970A950B94FBF759FE09A93E
:104B60002F4809960A940B944FF44079FBF750FEB6
:104B7000122209A92A480A920C97CDF82490CDF860
:104B80002CA0CDF834B0FBF743FE22464146172057
:104B9000FBF73CFD1720FBF76DFD22464146282020
:104BA000FBF734FD2820FBF765FD2148214B03600E
:104BB0004FF4807780F804A08460C560046144618C
:104BC0008761C461C0F820B04462C0F828A0C46204
:104BD0000463FBF7A9FD00B1FEE7174C174BDFF8A4
:104BE0006480A06020616061A061E0612062204675
:104BF00084E80801C4F80CA0FBF798FF014600B157
:104C0000FEE72046FBF7E3FF014600B1FEE7204642
:104C1000FCF703F8C0B1FEE70010024000100048A6
:104C200000040048000C0048000800480000211063
:104C3000300E002020600140EC120020005800409F
:104C400000001110EC9C9010514B524AD8604FF06C
:104C5000FF0C58619861184683E80410C3F808A057
:104C6000C3F810A0FCF70CF900B1FEE74A4B4B4A21
:104C700098604FF4827E83E804404FF4007218611C
:104C800058619A61D8611862586298620722186365
:104C90001846C3F80C90DA625E63FDF78CF800B139
:104CA000FEE73F4B3F4A98604FF4E136D860186109
:104CB0000C249861D86118625862184683E8440051
:104CC0005C61FEF7F7F900B1FEE7374B374A9860B1
:104CD000D86018619861D86118625862184683E8F4
:104CE00044005C61FEF7E6F900B1FEE7304B4FF09F
:104CF000A04206245861D86118625862986218630D
:104D0000D862184683E81400DD609D61FBF7AAFFB6
:104D100000B1FEE7274B284998601422186198617A
:104D2000184683E80600DF60FDF7C6FD00B1FEE728
:104D3000002306A91F4806930893FDF7E5FE00B17E
:104D4000FEE760230A900B900D90042209A91948F0
:104D50000993FDF711FE00B1FEE7082209A91548E5
:104D6000FDF70AFE064600B1FEE7144D114800F0BB
:104D7000BDFA0FCD09AC0FC42B682360314609A8DA
:104D8000FEF705FB0E4B1860FEF7FCFAFEE700BFCE
:104D900054140020001000A078130020003C0040B4
:104DA000DC130020003801406C0E00200048004059
:104DB000E40E00203813002000040040186B0008A7
:104DC000680E002070B50D4D0646002446FA04F228
:104DD00002F0010204212846FBF796FE0122082179
:104DE0004FF09040FBF790FE0134002208214FF075
:104DF0009040FBF789FE082CE8D170BD0004004804
:104E000010B50022044608214FF09040FBF77CFECD
:104E1000002210214FF09040FBF776FE0122042182
:104E20000F48FBF771FE002240214FF09040FBF746
:104E30006BFEE0B2FFF7C6FF0220FEF7C0FA0122C8
:104E400040214FF09040FBF75FFE0220FEF7B7FADB
:104E5000002240214FF09040BDE81040FBF754BEC7
:104E600000040048002230B5134601258A4201DBC8
:104E7000184630BD50F82240C4F1070405FA04F486
:104E80002343DBB20132F1E72DE9F3410F461C4623
:104E9000214D224ECAB12C683368DFF884809C42D1
:104EA000B8BF1C460027A74205DD002333602B60F6
:104EB00002B0BDE8F081D8F80030E21BDA630A20C6
:104EC0009A63FEF77CFA0A37EDE7012813D002282F
:104ED00008D100900123022168460193FFF7C2FF29
:104EE000FFF78EFF032F0E4B09D0042F0ED01B6847
:104EF0003460DC6307E0032300930423EBE71B68C3
:104F00003460DC63203C9C632C60D1E71B68A4F117
:104F10002002DA633260F6E7B40D0020B00D002005
:104F20003813002030B54A4889B000F079FC0421DC
:104F30004848FDF7B5FD08214648FDF7B1FD00F0F2
:104F400019FB002874D1444800F06AFC032243494D
:104F5000434800F033FB00286CD1424800F060FC6D
:104F600003A800F03FFB58B99DF80F0000909DF892
:104F70000E309DF80D209DF80C103B4800F0DCFB36
:104F80003A4B3B4A1868049040F6590300200093BE
:104F9000019004AB012100F033FB00284CD13548CF
:104FA000354D00F03DFC032401224FF4804128469A
:104FB000FBF7AAFD3220FBF709FB00224FF48041EA
:104FC0002846FBF7A1FD3220FBF700FB013CEBD1AB
:104FD0000A2200920DEB020305A9002000F038FB25
:104FE0000028F5D1BDF80A30062BF1D19DF8143018
:104FF000312B27D09DF81530312B1FD09DF816305E
:10500000312B14BF012002209DF81730312B17D00F
:105010009DF81830312B14BF002104219DF8193060
:10502000312B14BFE023FE230022FFF72DFFCFE733
:10503000124889E7124891E71248B1E70120E3E7F7
:105040000321EBE701220146E0231046EDE700BF14
:10505000C16B000838130020C76B0008F06B000814
:10506000F96B0008016C00083E6C00082C6B00080E
:10507000586C00085F6C000800040048DB6B0008F7
:105080001D6C0008786C000807B502A9642301F8BC
:10509000010D01220348FDF784FF002003B05DF8F5
:1050A00004FB00BFDC13002070B50E4615460C460D
:1050B000A31B9D4201DC284670BD14F8010BFFF7CD
:1050C000E3FFF5E70268034B9A4201D1FBF770BAA0
:1050D000704700BF00480140214B07B51A6E42F0EF
:1050E00001021A661A6E02F001020092009A9A6D8D
:1050F00042F080529A659B6D03F080530193032028
:10510000019BFBF771FA002211466FF00B00FBF7D1
:105110007DFA002211466FF00A00FBF777FA0022B1
:1051200011466FF00900FBF771FA002211466FF08B
:105130000400FBF76BFA002211466FF00300FBF747
:1051400065FA00220F216FF00100FBF75FFA0022E1
:105150000F214FF0FF30FBF759FA03B05DF804FB65
:10516000001002407FB50E4B1B68B3B90D4A0E48C4
:10517000116E41F080711166126E039302F080721D
:105180000092009A04934FF42072019206230222A7
:1051900001A902920593FBF73BFB07B05DF804FB06
:1051A000B80D002000100240001000487FB50268D2
:1051B0000F4B9A4219D14FF440630193122302938B
:1051C000012303930323049304230DEB03010948F4
:1051D0000593FBF71DFB084B9A6D42F480029A651C
:1051E0009B6D03F480030093009B07B05DF804FB04
:1051F0000058004000040048001002407FB50268DB
:10520000104B9A421BD103F1204303F5003301A94F
:105210001A6D0D4842F480721A651B6D03F4807399
:105220000093009B4FF47C430193022302930023DD
:105230000393032304930A230593FBF7E9FA07B0CA
:105240005DF804FB001000A0001000487FB5026864
:105250000F4B9A4219D103F5EA3301A99A6D0D4813
:1052600042F400429A659B6D03F400430093009B57
:105270004FF4E0530193022302930023039303238B
:10528000049306230593FBF7C3FA07B05DF804FB0C
:10529000003C0040000800480268074B9A4209D1D0
:1052A000064A0748936D23F4004393654FF4E05199
:1052B000FBF78ABB704700BF003C00400010024073
:1052C000000800480268084B9A4282B00AD103F5F0
:1052D00003339A6D42F002029A659B6D03F002035C
:1052E0000193019B02B070470004004030B5026892
:1052F0000E4B9A4287B016D102240025802301A9C3
:105300004FF0904001930294039504950594FBF7A8
:105310007FFA012301A9064801930294039504959D
:105320000594FBF775FA07B030BD00BF00040040DC
:105330000004004800B503681C4A934289B01AD1A2
:105340001B4B1C481A6E42F480421A661B6E03F413
:1053500080430193019BC023039302230493002302
:105360000593032306930723079303A9FBF750FA3A
:1053700009B05DF804FB104A9342F9D10C4B0F4879
:105380009A6D42F480229A659B6D03F48023029308
:10539000029B4FF44073039302230493002305936D
:1053A000032306930723079303A9DFE7003801408F
:1053B000001002400004004800480040000C004873
:1053C00010B50368B3F1A04F88B038D100244FF472
:1053D000007303A94FF09040039304940594FBF7E6
:1053E00017FA4FF4E05303930594022304F1804429
:1053F00004F5043404930323069303A90A234FF00E
:1054000090400793FBF704FAE36C43F48053E364A2
:10541000E36C03F480530193019BA36DDB0010D474
:10542000A36D43F08053A365A36D03F080530293F3
:10543000029BFBF7F7FCA36D23F08053A36508B034
:1054400010BDFBF7EFFCFAE710B5014688B000226B
:105450001A20FBF7DBF81A20FBF70CF9144B154C5C
:105460001A6E42F480221A661B6E03F480230293A4
:1054700001A903A8029BFCF7D3F8FCF7BFF80E4B79
:10548000236040F2E733E3600C4BB0FBF3F00138EC
:105490000023606020462361A360FDF7F3F920B983
:1054A0002046FDF7BDF808B010BD0120FBE700BFA6
:1054B00000100240981400200048014040420F00B4
:1054C0007047FEE7FEE7FEE7FEE77047FDF77FBFA8
:1054D00008B52020FBF71EFB4020FBF71BFB8020BC
:1054E000FBF718FB4FF48070BDE80840FBF712BBD8
:1054F0000148FDF7B1B800BF9814002008B54FF47B
:105500008060FBF707FB4FF40060FBF703FB4FF4F1
:105510000050FBF7FFFA4FF48040FBF7FBFA4FF423
:105520000040BDE80840FBF7F5BA00000F49D1F88C
:10553000883043F47003C1F888300D4B1A6800209E
:1055400042F001021A6098601A6822F0A85222F410
:1055500010221A604FF48052DA601A6822F4802216
:105560001A6098614FF000638B60704700ED00E0B7
:105570000010024007B50B4B01930B4B00930B4AF5
:105580000B4B0C490C48FEF7BFFD40B90A48FEF72B
:105590005BFD003018BF012003B05DF804FB012063
:1055A000FAE700BF05470008FD470008F546000878
:1055B00091480008DD450008D814002008B51346BE
:1055C0000A4601460648FEF7B3FD30B90448FEF727
:1055D000EFFD003018BF012008BD012008BD00BF4D
:1055E000D8140020054B93F8BE2022B1D3F8C13067
:1055F0000360002070470120704700BFD8140020CE
:105600001FB5BDF81820ADF80220BDF81C20ADF87C
:10561000042000311A788DF8062018BF01215A782D
:105620008DF801008DF800108DF8072069469A78F2
:105630000648DB788DF808208DF80930FEF730FE3B
:10564000003018BF012005B05DF804FBD81400201D
:1056500013B5049C8DE8180013460A460146044819
:10566000FEF782FE003018BF012002B010BD00BF5F
:10567000D8140020DFF834D0002103E00C4B5B5835
:10568000435004310B480C4B42189A42F6D30B4A54
:1056900002E0002342F8043B094B9A42F9D3FFF79A
:1056A00045FF00F011F8FFF75DF9FEE700800120EB
:1056B000986D0008000000206C0000206C000020A5
:1056C000381C0020FEE7000070B50D4E0D4CA41BE9
:1056D000A4100025A54209D10B4E0C4C01F010FA84
:1056E000A41BA4100025A54205D170BD56F8253095
:1056F00098470135EEE756F8253098470135F2E72F
:10570000906D0008906D0008906D0008946D000881
:1057100010B5431E0A44914200D110BD11F8014B4F
:1057200003F8014FF7E702440346934200D1704764
:1057300003F8011BF9E700000FB40A4B13B51C680E
:1057400024B1A36913B9204600F0D4FA05AB049A3A
:10575000A1680193204600F0E9FD02B0BDE81040C9
:1057600004B070470800002070B50E46054618B119
:1057700083690BB900F0BEFAAB69AC6813B928466F
:1057800000F0B8FA234B9C4217D16C68A3891B0721
:105790001DD52369DBB1013EA36816F8011F013B4B
:1057A000A360E9B9002B2EDA22460A21284600F030
:1057B000EFF8013011D00A2070BD174B9C4201D187
:1057C000AC68E3E7154B9C4208BFEC68DEE7214676
:1057D000284600F02FF90028DDD04FF0FF3070BDD3
:1057E000002B04DAA269934206DB0A2904D023685D
:1057F0005A1C22601970CFE72246284600F0C8F8EC
:105800000130C9D1E9E723680A205A1C22601870C8
:1058100070BD00BF106D0008306D0008F06C00080E
:10582000024B01461868FFF79FBF00BF0800002029
:105830000EB400B59CB04FF402711DABADF814105E
:10584000029006906FF000410A48049107914FF6CC
:10585000FF7153F8042BADF816100068019302A9EC
:1058600000F046FC029B00221A701CB05DF804EBAD
:1058700003B0704708000020034611F8012B03F81D
:10588000012B002AF9D1704770B5044602B970BDEA
:10589000234611F8015B03F8015B561E1DB9144441
:1058A000A34203D170BD1C463246EFE703F8015B0B
:1058B000F6E7F0B5037833B1034618465E1C1B7853
:1058C00033B91846F0BD0B78002B18BF0020F0BD8F
:1058D0004D1E441E15F8012F002AF3D014F8017F45
:1058E00097423346F6D0E8E7134B2DE9F0411D68A7
:1058F000AC6D06460F46B4B9502000F0E9FAA86531
:10590000046044608460C4600461446184618462B2
:10591000C462046344638463C4630464446484644D
:10592000C46404774462AA6D394630460123BDE859
:10593000F04100F003B800BF08000020F0B518B92E
:10594000106808B9F0BD204604460F4614F8015B04
:1059500017F8016B1EB965B915602846F0BDB54250
:10596000F6D1002BEFD114600370F0BD1C460CE0A3
:1059700015B914F8013B0E4616F8015BAB42F7D19E
:10598000002BF3D0002304F8013C1460F0BD0000AC
:10599000F8B50E461446054618B183690BB900F0F8
:1059A000A9F9214B9C422AD16C68A369A360A38901
:1059B0001A072ED5236963B323692068C01A636967
:1059C000F6B29842374604DB2146284600F028F913
:1059D00028BBA368013BA36023685A1C22601E7089
:1059E00063690130984204D0A389DB0719D50A2ED8
:1059F00017D12146284600F013F990B10FE00B4B68
:105A00009C4201D1AC68D0E7094B9C4208BFEC68CE
:105A1000CBE72146284600F00DF80028CCD04FF007
:105A2000FF373846F8BD00BF106D0008306D000824
:105A3000F06C0008324B70B51D6806460C4625B167
:105A4000AB6913B9284600F055F92E4B9C420FD193
:105A50006C68B4F90C309AB215072CD4D00611D466
:105A60000922326043F04003A3814FF0FF3070BD44
:105A7000254B9C4201D1AC68EBE7244B9C4208BF0C
:105A8000EC68E6E7510712D5616B41B104F14403BC
:105A9000994202D0304600F023FA00236363A389C1
:105AA00023F02403A3810023636023692360A38977
:105AB00043F00803A38123694BB9A38903F420733E
:105AC000B3F5007F03D02146304600F0C1F9A2892A
:105AD00012F001030CD00023A36063695B42A36151
